{"abi":[{"type":"constructor","inputs":[],"stateMutability":"nonpayable"},{"type":"function","name":"ban","inputs":[{"name":"user","type":"address","internalType":"address"}],"outputs":[],"stateMutability":"nonpayable"},{"type":"function","name":"banFromGame","inputs":[{"name":"gameId","type":"uint256","internalType":"uint256"},{"name":"player","type":"address","internalType":"address"}],"outputs":[],"stateMutability":"nonpayable"},{"type":"function","name":"createGame","inputs":[{"name":"duration","type":"uint8","internalType":"uint8"}],"outputs":[{"name":"gameId","type":"uint256","internalType":"uint256"},{"name":"gameAddress","type":"address","internalType":"address"}],"stateMutability":"payable"},{"type":"function","name":"generateRandomNumberFromSeed","inputs":[{"name":"seed","type":"uint256","internalType":"uint256"},{"name":"range","type":"uint8","internalType":"uint8"}],"outputs":[{"name":"","type":"uint8","internalType":"uint8"}],"stateMutability":"pure"},{"type":"function","name":"getGame","inputs":[{"name":"gameId","type":"uint256","internalType":"uint256"}],"outputs":[{"name":"","type":"address","internalType":"address"}],"stateMutability":"view"},{"type":"function","name":"getGames","inputs":[],"outputs":[{"name":"","type":"address[20]","internalType":"address[20]"}],"stateMutability":"view"},{"type":"function","name":"getOpenGames","inputs":[],"outputs":[{"name":"","type":"address[]","internalType":"address[]"}],"stateMutability":"view"},{"type":"function","name":"getRealGameId","inputs":[{"name":"gameId","type":"uint256","internalType":"uint256"}],"outputs":[{"name":"realGameId","type":"uint8","internalType":"uint8"}],"stateMutability":"pure"},{"type":"function","name":"isBanned","inputs":[{"name":"user","type":"address","internalType":"address"}],"outputs":[{"name":"","type":"bool","internalType":"bool"}],"stateMutability":"view"},{"type":"function","name":"owner","inputs":[],"outputs":[{"name":"","type":"address","internalType":"address"}],"stateMutability":"view"},{"type":"function","name":"renounceOwnership","inputs":[],"outputs":[],"stateMutability":"nonpayable"},{"type":"function","name":"setGameCreationFee","inputs":[{"name":"gameCreationFee","type":"uint256","internalType":"uint256"}],"outputs":[],"stateMutability":"nonpayable"},{"type":"function","name":"setStarCost","inputs":[{"name":"starCost","type":"uint256","internalType":"uint256"}],"outputs":[],"stateMutability":"nonpayable"},{"type":"function","name":"setWinningsCut","inputs":[{"name":"winningsCut","type":"uint8","internalType":"uint8"}],"outputs":[],"stateMutability":"nonpayable"},{"type":"function","name":"transferOwnership","inputs":[{"name":"newOwner","type":"address","internalType":"address"}],"outputs":[],"stateMutability":"nonpayable"},{"type":"function","name":"unban","inputs":[{"name":"user","type":"address","internalType":"address"}],"outputs":[],"stateMutability":"nonpayable"},{"type":"function","name":"withdraw","inputs":[],"outputs":[],"stateMutability":"nonpayable"},{"type":"function","name":"withdrawGameCut","inputs":[{"name":"gameId","type":"uint256","internalType":"uint256"}],"outputs":[],"stateMutability":"nonpayable"},{"type":"event","name":"GameCreated","inputs":[{"name":"gameId","type":"uint256","indexed":true,"internalType":"uint256"},{"name":"gameAddress","type":"address","indexed":true,"internalType":"address"}],"anonymous":false},{"type":"event","name":"GameJoined","inputs":[{"name":"gameId","type":"uint256","indexed":true,"internalType":"uint256"},{"name":"player","type":"address","indexed":false,"internalType":"address"}],"anonymous":false},{"type":"event","name":"OwnershipTransferred","inputs":[{"name":"previousOwner","type":"address","indexed":true,"internalType":"address"},{"name":"newOwner","type":"address","indexed":true,"internalType":"address"}],"anonymous":false},{"type":"error","name":"RestrictedRPSFactory_DurationTooLong","inputs":[]},{"type":"error","name":"RestrictedRPSFactory_InvalidGameId","inputs":[{"name":"gameId","type":"uint256","internalType":"uint256"}]},{"type":"error","name":"RestrictedRPSFactory_PlayerBanned","inputs":[{"name":"player","type":"address","internalType":"address"}]},{"type":"error","name":"RestrictedRPSFactory_SendMore","inputs":[]},{"type":"error","name":"RestrictedRPSFactory_TooManyOpenGames","inputs":[]}],"bytecode":{"object":"0x608060405260018080556002805460ff191690911790556509184e72a000600381905560045534801561003157600080fd5b5061003b33610040565b610090565b600080546001600160a01b038381166001600160a01b0319831681178455604051919092169283917f8be0079c531659141344cd1fd0a4f28419497f9722a3daafe3b4186f6b6457e09190a35050565b6153038061009f6000396000f3fe6080604052600436106200011f5760003560e01c806397c3ccd811620000a1578063c04c5947116200006c578063c04c5947146200033c578063e580f6ab1462000363578063e75d7e3e1462000398578063f2fde38b14620003bf578063f6cca6e214620003e457600080fd5b806397c3ccd8146200027f57806397f735d514620002a4578063a2f77bcc14620002f2578063b9f14557146200031757600080fd5b8063681956a511620000ee578063681956a514620001c45780636e9b2dc014620001e9578063715018a6146200020e578063830d545914620002265780638da5cb5b146200024b57600080fd5b80630be7544914620001245780633ccfd60b146200014b578063412650ba14620001635780635b282cba146200019f575b600080fd5b3480156200013157600080fd5b50620001496200014336600462000d3b565b62000409565b005b3480156200015857600080fd5b506200014962000418565b3480156200017057600080fd5b50620001886200018236600462000d3b565b62000460565b60405160ff90911681526020015b60405180910390f35b348015620001ac57600080fd5b5062000149620001be36600462000d6c565b62000475565b348015620001d157600080fd5b5062000149620001e336600462000da2565b62000495565b348015620001f657600080fd5b50620001496200020836600462000d3b565b620004f8565b3480156200021b57600080fd5b506200014962000507565b3480156200023357600080fd5b50620001496200024536600462000d3b565b6200051f565b3480156200025857600080fd5b506000546001600160a01b03165b6040516001600160a01b03909116815260200162000196565b3480156200028c57600080fd5b50620001496200029e36600462000dd1565b620005c4565b348015620002b157600080fd5b50620002e1620002c336600462000dd1565b6001600160a01b031660009081526005602052604090205460ff1690565b604051901515815260200162000196565b348015620002ff57600080fd5b50620002666200031136600462000d3b565b620005f2565b3480156200032457600080fd5b50620001496200033636600462000dd1565b6200062d565b3480156200034957600080fd5b506200035462000658565b60405162000196919062000def565b6200037a6200037436600462000d6c565b620006a1565b604080519283526001600160a01b0390911660208301520162000196565b348015620003a557600080fd5b50620003b06200098e565b60405162000196919062000e2c565b348015620003cc57600080fd5b5062000149620003de36600462000dd1565b62000ba0565b348015620003f157600080fd5b50620001886200040336600462000e7b565b62000c1c565b6200041362000c62565b600155565b6200042262000c62565b600080546040516001600160a01b03909116914780156108fc02929091818181858888f193505050501580156200045d573d6000803e3d6000fd5b50565b60006200046f60148362000ea1565b92915050565b6200047f62000c62565b6002805460ff191660ff92909216919091179055565b6000620004a28362000460565b905060068160ff1660148110620004bd57620004bd62000ec4565b01546001600160a01b03163303620004f3576001600160a01b0382166000908152600560205260409020805460ff191660011790555b505050565b6200050262000c62565b600355565b6200051162000c62565b6200051d600062000cbe565b565b6200052962000c62565b6000620005368262000460565b9050600060068260ff166014811062000553576200055362000ec4565b0160009054906101000a90046001600160a01b03169050806001600160a01b0316633ccfd60b6040518163ffffffff1660e01b8152600401600060405180830381600087803b158015620005a657600080fd5b505af1158015620005bb573d6000803e3d6000fd5b50505050505050565b620005ce62000c62565b6001600160a01b03166000908152600560205260409020805460ff19166001179055565b600080620006008362000460565b905060068160ff16601481106200061b576200061b62000ec4565b01546001600160a01b03169392505050565b6200063762000c62565b6001600160a01b03166000908152600560205260409020805460ff19169055565b6200066262000d0e565b604080516102808101918290529060069060149082845b81546001600160a01b0316815260019091019060200180831162000679575050505050905090565b33600090815260056020526040812054819060ff1615620006dc57604051634114689b60e11b81523360048201526024015b60405180910390fd5b600154341015620007005760405163e7781c5960e01b815260040160405180910390fd5b601a5491506000620007128362000460565b905060068160ff16601481106200072d576200072d62000ec4565b01546001600160a01b0316915081156200087057816003816001600160a01b0316631865c57d6040518163ffffffff1660e01b8152600401602060405180830381865afa15801562000783573d6000803e3d6000fd5b505050506040513d601f19601f82011682018060405250810190620007a9919062000ef0565b6003811115620007bd57620007bd62000eda565b14620007dc57604051630b37dc9160e01b815260040160405180910390fd5b60025460035460048054604051630e3b9b1160e41b815291820188905260ff93841660248301526044820192909252606481019190915233608482015290861660a48201526001600160a01b0382169063e3b9b1109060c401600060405180830381600087803b1580156200085057600080fd5b505af115801562000865573d6000803e3d6000fd5b50505050506200093b565b60003084600260009054906101000a900460ff16600354600454338a6040516200089a9062000d2d565b6001600160a01b039788168152602081019690965260ff9485166040870152606086019390935260808501919091529390931660a083015290911660c082015260e001604051809103906000f080158015620008fa573d6000803e3d6000fd5b5090508092508260068360ff16601481106200091a576200091a62000ec4565b0180546001600160a01b0319166001600160a01b0392909216919091179055505b601a80549060006200094d8362000f29565b90915550506040516001600160a01b0383169084907fc3e0f84839dc888c892a013d10c8f9d6dc05a21a879d0ce468ca558013e9121c90600090a350915091565b6040805160148082526102a082019092526060916000919060208201610280803683370190505090506000805b601460ff8216101562000ad257600060068260ff1660148110620009e357620009e362000ec4565b01546001600160a01b03169050801562000abc57806000816001600160a01b0316631865c57d6040518163ffffffff1660e01b8152600401602060405180830381865afa15801562000a39573d6000803e3d6000fd5b505050506040513d601f19601f8201168201806040525081019062000a5f919062000ef0565b600381111562000a735762000a7362000eda565b0362000aba5781858560ff168151811062000a925762000a9262000ec4565b6001600160a01b03909216602092830291909101909101528362000ab68162000f5b565b9450505b505b508062000ac98162000f5b565b915050620009bb565b5060008160ff1667ffffffffffffffff81111562000af45762000af462000f45565b60405190808252806020026020018201604052801562000b1e578160200160208202803683370190505b50905060005b8260ff168160ff16101562000b9857838160ff168151811062000b4b5762000b4b62000ec4565b6020026020010151828260ff168151811062000b6b5762000b6b62000ec4565b6001600160a01b03909216602092830291909101909101528062000b8f8162000f5b565b91505062000b24565b509392505050565b62000baa62000c62565b6001600160a01b03811662000c115760405162461bcd60e51b815260206004820152602660248201527f4f776e61626c653a206e6577206f776e657220697320746865207a65726f206160448201526564647265737360d01b6064820152608401620006d3565b6200045d8162000cbe565b60008160ff168360405160200162000c3691815260200190565b6040516020818303038152906040528051906020012060001c62000c5b919062000ea1565b9392505050565b6000546001600160a01b031633146200051d5760405162461bcd60e51b815260206004820181905260248201527f4f776e61626c653a2063616c6c6572206973206e6f7420746865206f776e65726044820152606401620006d3565b600080546001600160a01b038381166001600160a01b0319831681178455604051919092169283917f8be0079c531659141344cd1fd0a4f28419497f9722a3daafe3b4186f6b6457e09190a35050565b6040518061028001604052806014906020820280368337509192915050565b6143508062000f7e83390190565b60006020828403121562000d4e57600080fd5b5035919050565b803560ff8116811462000d6757600080fd5b919050565b60006020828403121562000d7f57600080fd5b62000c5b8262000d55565b80356001600160a01b038116811462000d6757600080fd5b6000806040838503121562000db657600080fd5b8235915062000dc86020840162000d8a565b90509250929050565b60006020828403121562000de457600080fd5b62000c5b8262000d8a565b6102808101818360005b601481101562000e235781516001600160a01b031683526020928301929091019060010162000df9565b50505092915050565b6020808252825182820181905260009190848201906040850190845b8181101562000e6f5783516001600160a01b03168352928401929184019160010162000e48565b50909695505050505050565b6000806040838503121562000e8f57600080fd5b8235915062000dc86020840162000d55565b60008262000ebf57634e487b7160e01b600052601260045260246000fd5b500690565b634e487b7160e01b600052603260045260246000fd5b634e487b7160e01b600052602160045260246000fd5b60006020828403121562000f0357600080fd5b81516004811062000c5b57600080fd5b634e487b7160e01b600052601160045260246000fd5b60006001820162000f3e5762000f3e62000f13565b5060010190565b634e487b7160e01b600052604160045260246000fd5b600060ff821660ff810362000f745762000f7462000f13565b6001019291505056fe60a06040523480156200001157600080fd5b506040516200435038038062004350833981016040819052620000349162000210565b6001600160a01b038716608052620000518686868686866200005e565b505050505050506200033d565b60008690556001805460ff191660ff8781169190911790915560038590556004849055600580546001600160a01b0319166001600160a01b0385161790556007805462ff00ff19169183169182179055620000bd9062015180620002a0565b620000ce9062ffffff1642620002ca565b6006819055506000601460036006620000e89190620002e6565b620000f4919062000317565b6040805160608101825260ff831680825260208201819052918101919091529091506200012690600290600362000130565b5050505050505050565b600183019183908215620001b85791602002820160005b838211156200018757835183826101000a81548160ff021916908360ff160217905550926020019260010160208160000104928301926001030262000147565b8015620001b65782816101000a81549060ff021916905560010160208160000104928301926001030262000187565b505b50620001c6929150620001ca565b5090565b5b80821115620001c65760008155600101620001cb565b80516001600160a01b0381168114620001f957600080fd5b919050565b805160ff81168114620001f957600080fd5b600080600080600080600060e0888a0312156200022c57600080fd5b6200023788620001e1565b9650602088015195506200024e60408901620001fe565b945060608801519350608088015192506200026c60a08901620001e1565b91506200027c60c08901620001fe565b905092959891949750929550565b634e487b7160e01b600052601160045260246000fd5b62ffffff818116838216028082169190828114620002c257620002c26200028a565b505092915050565b80820180821115620002e057620002e06200028a565b92915050565b600060ff8316806200030857634e487b7160e01b600052601260045260246000fd5b8060ff84160491505092915050565b60ff81811683821602908116908181146200033657620003366200028a565b5092915050565b608051613fd46200037c60003960008181610799015281816107e4015281816109dc015281816113640152818161239b015261277e0152613fd46000f3fe6080604052600436106101405760003560e01c80637c1b7f8a116100b6578063b6b3b64e1161006f578063b6b3b64e1461036a578063c0bd83511461039d578063d4f77b1c146103b2578063e3b9b110146103ba578063ec18810a146103da578063fcada10a146103fa57600080fd5b80637c1b7f8a146102a55780639cf6d1af146102ba5780639fecb69f146102e2578063a2b19a49146102f7578063a6d3571d14610317578063ad2e8c9b1461034457600080fd5b80634a6d5fe3116101085780634a6d5fe3146101f4578063525f5093146102145780635e7303d414610236578063651ffda91461024b578063786b844b1461026b5780637b3529621461028057600080fd5b80630f9361c3146101455780631746bd1b1461016d5780631865c57d146101955780632c70120e146101bb5780633ccfd60b146101dd575b600080fd5b34801561015157600080fd5b5061015a610417565b6040519081526020015b60405180910390f35b34801561017957600080fd5b5061018261042c565b6040516101649796959493929190613767565b3480156101a157600080fd5b5060075462010000900460ff166040516101649190613823565b3480156101c757600080fd5b506101d061059d565b6040516101649190613861565b3480156101e957600080fd5b506101f2610751565b005b34801561020057600080fd5b506101f261020f366004613976565b61082f565b34801561022057600080fd5b50610229610d15565b6040516101649190613ad9565b34801561024257600080fd5b5060035461015a565b34801561025757600080fd5b506101f2610266366004613b3f565b610e96565b34801561027757600080fd5b506101f261119c565b34801561028c57600080fd5b50610295611407565b6040519015158152602001610164565b3480156102b157600080fd5b506101f2611624565b3480156102c657600080fd5b506005546040516001600160a01b039091168152602001610164565b3480156102ee57600080fd5b506101f2611a94565b34801561030357600080fd5b506101f2610312366004613b7a565b611ad4565b34801561032357600080fd5b50610337610332366004613c32565b611e88565b6040516101649190613c56565b34801561035057600080fd5b5060075460ff165b60405160ff9091168152602001610164565b34801561037657600080fd5b5061038a610385366004613c65565b611fbb565b60405161ffff9091168152602001610164565b3480156103a957600080fd5b5060005461015a565b610358612383565b3480156103c657600080fd5b506101f26103d5366004613ca7565b612773565b3480156103e657600080fd5b506101f26103f5366004613d1a565b6128ae565b34801561040657600080fd5b50600754610100900460ff16610358565b6003805460009161042791613d4b565b905090565b600080600080600061043c613561565b600754606090610100900460ff1660008167ffffffffffffffff8111156104655761046561392f565b60405190808252806020026020018201604052801561048e578160200160208202803683370190505b50905060005b8260ff168160ff1610156105125760088160ff16601481106104b8576104b8613d62565b6004020160030160009054906101000a90046001600160a01b0316828260ff16815181106104e8576104e8613d62565b6001600160a01b03909216602092830291909101909101528061050a81613d78565b915050610494565b5060005460585460038054600454600654604080516060810190915261ffff90951694929391929091600291889183908282826020028201916000905b825461010083900a900460ff1681526020600192830181810494850194909303909202910180841161054f579050505050505091509850985098509850985098509850505090919293949596565b60585460609061ffff1660008167ffffffffffffffff8111156105c2576105c261392f565b6040519080825280602002602001820160405280156105fb57816020015b6105e861357f565b8152602001906001900390816105e05790505b50905060005b8261ffff168160ff16101561074a5760598160ff16610190811061062757610627613d62565b604080516101008082018352600293840294909401805460ff808216845295810486166020840152919490939285019262010000909204169081111561066f5761066f61380d565b60028111156106805761068061380d565b815281546020909101906301000000900460ff1660028111156106a5576106a561380d565b60028111156106b6576106b661380d565b8152815460ff600160201b820481166020840152600160281b820481166040840152606090920191600160301b9091041660058111156106f8576106f861380d565b60058111156107095761070961380d565b8152602001600182015481525050828260ff168151811061072c5761072c613d62565b6020026020010181905250808061074290613d78565b915050610601565b5092915050565b600360075462010000900460ff1660038111156107705761077061380d565b1461078e576040516368ac9bad60e01b815260040160405180910390fd5b336001600160a01b037f000000000000000000000000000000000000000000000000000000000000000016146107d757604051633f9db83960e01b815260040160405180910390fd5b6040516001600160a01b037f000000000000000000000000000000000000000000000000000000000000000016904780156108fc02916000818181858888f1935050505015801561082c573d6000803e3d6000fd5b50565b8160ff8116158061084d575060075460ff6101009091048116908216115b1561086b57604051630e0a2aa160e11b815260040160405180910390fd5b6108736135c3565b61087b613561565b6040805160608101918290526000916002906003908285855b825461010083900a900460ff16815260206001928301818104948501949093039092029101808411610894579050505050505090506000806108d4613561565b60088360ff161080156108ff5750805115806108f257506020810151155b806108ff57506040810151155b156109c9576000848360ff166003811061091b5761091b613d62565b602002015160ff1611156109895781868460ff166008811061093f5761093f613d62565b60ff90921660209290920201528261095681613d78565b935050838260ff166003811061096e5761096e613d62565b6020020180519061097e82613d97565b60ff169052506109ab565b6001818360ff16600381106109a0576109a0613d62565b911515602090920201525b60036109b8836001613db4565b6109c29190613de3565b91506108d4565b60005b60068160ff161015610b3c5760007f00000000000000000000000000000000000000000000000000000000000000006001600160a01b031663f6cca6e28b8460ff1660068110610a1e57610a1e613d62565b60200201516040516001600160e01b031960e084901b168152600481019190915260ff88166024820152604401602060405180830381865afa158015610a68573d6000803e3d6000fd5b505050506040513d601f19601f82011682018060405250810190610a8c9190613e05565b9050878160ff1660088110610aa357610aa3613d62565b60200201519350868460ff1660038110610abf57610abf613d62565b60200201805190610acf82613d78565b60ff1690525087610ae1600187613e22565b60ff1660088110610af457610af4613d62565b6020020151888260ff1660088110610b0e57610b0e613d62565b60ff909216602092909202015284610b2581613d97565b955050508080610b3490613d78565b9150506109cc565b50845160028054602088015160408901516201000061010060ff19851660ff8087168990038116918217839004811695909503851690910261ffff199095161793909317838104831691909103821690920262ff00001992909216919091179091556000198b019190600890831660148110610bba57610bba613d62565b6004020160030160176101000a81548160ff021916908360000b60ff1602179055508560016002811115610bf057610bf061380d565b60ff1660038110610c0357610c03613d62565b602002015160088260ff1660148110610c1e57610c1e613d62565b6004020160030160186101000a81548160ff021916908360000b60ff16021790555085600280811115610c5357610c5361380d565b60ff1660038110610c6657610c66613d62565b602002015160088260ff1660148110610c8157610c81613d62565b6004020160030160196101000a81548160ff021916908360000b60ff160217905550600160088260ff1660148110610cbb57610cbb613d62565b60040201600301601a6101000a81548160ff0219169083151502179055508960ff167f017debd7c79e4378a9deeb7a4c53031f98e52a78181b2a41737d6bcd1da0cad260405160405180910390a250505050505050505050565b600754606090610100900460ff1660008167ffffffffffffffff811115610d3e57610d3e61392f565b604051908082528060200260200182016040528015610d7757816020015b610d646135e2565b815260200190600190039081610d5c5790505b50905060005b8260ff168160ff16101561074a5760088160ff1660148110610da157610da1613d62565b60408051610180810182526004929092029290920180548252600181015460208301526002810154928201929092526003909101546001600160a01b038116606083015260ff600160a01b820481166080840152600160a81b8204811660a0840152600160b01b8204811660c0840152600160b81b8204600090810b60e0850152600160c01b8304810b610100850152600160c81b8304900b610120840152600160d01b820481161515610140840152600160d81b90910481161515610160830152835184918416908110610e7857610e78613d62565b60200260200101819052508080610e8e90613d78565b915050610d7d565b605854829061ffff90811690821610610ec2576040516311eb888760e31b815260040160405180910390fd5b336000908152610379602052604081205460ff1690819003610ef757604051637082284960e11b815260040160405180910390fd5b6000610f04600183613e22565b9050600060598661ffff166101908110610f2057610f20613d62565b60020201805490915060ff90811690831603610f4f57604051631deda49760e01b815260040160405180910390fd5b60008154600160301b900460ff166005811115610f6e57610f6e61380d565b14610f8c576040516317c9510160e01b815260040160405180910390fd5b600060088360ff1660148110610fa457610fa4613d62565b60408051610180810182526004929092029290920180548252600181015460208301526002810154928201929092526003909101546001600160a01b038116606083015260ff600160a01b8204811660808401819052600160a81b8304821660a08501819052600160b01b8404831660c0860152600160b81b8404600090810b60e0870152600160c01b8504810b610100870152600160c81b8504900b610120860152600160d01b840483161515610140860152600160d81b909304821615156101608501528554939450926110839291600160281b90910416613db4565b60ff1611156110a557604051638ba4117960e01b815260040160405180910390fd5b815460ff84166101000261ff00198216811784558791849163ff000000191663ff00ff00199091161763010000008360028111156110e5576110e561380d565b0217905550815460ff60301b1916600160301b1780835560ff600160281b90910481169060089085166014811061111e5761111e613d62565b6004020160030160158282829054906101000a900460ff166111409190613db4565b92506101000a81548160ff021916908360ff160217905550336001600160a01b03168761ffff167f01b120bec3d4ba9705e9f5f6c7aa115993959878ac9533a84cb359ffe642823060405160405180910390a350505050505050565b600260075462010000900460ff1660038111156111bb576111bb61380d565b146111d95760405163059546f560e21b815260040160405180910390fd5b600754610100900460ff1660005b8160ff168160ff1610156113f257600060088260ff166014811061120d5761120d613d62565b60408051610180810182526004929092029290920180548252600181015460208301526002810154928201839052600301546001600160a01b0381166060830181905260ff600160a01b830481166080850152600160a81b8304811660a0850152600160b01b8304811660c0850152600160b81b8304600090810b60e0860152600160c01b8404810b610100860152600160c81b8404900b610120850152600160d01b830481161515610140850152600160d81b9092049091161515610160830152909250811561133a57600060088560ff16601481106112f0576112f0613d62565b6004020160020181905550806001600160a01b03166108fc839081150290604051600060405180830381858888f19350505050158015611334573d6000803e3d6000fd5b506113dc565b826101600151156113dc57600054606084015160405163681956a560e01b81526001600160a01b037f0000000000000000000000000000000000000000000000000000000000000000169263681956a5926113a9926004019182526001600160a01b0316602082015260400190565b600060405180830381600087803b1580156113c357600080fd5b505af11580156113d7573d6000803e3d6000fd5b505050505b50505080806113ea90613d78565b9150506111e7565b50506007805462ff0000191662030000179055565b60008060075462010000900460ff1660038111156114275761142761380d565b146114325750600090565b42600654111561161e57600754610100900460ff16601403611618576040805161028081019091526000906008601483835b8282101561153b576040805161018081018252600484028601805482526001808201546020808501919091526002830154948401949094526003909101546001600160a01b038116606084015260ff600160a01b820481166080850152600160a81b8204811660a0850152600160b01b8204811660c0850152600160b81b8204600090810b60e0860152600160c01b8304810b610100860152600160c81b8304900b610120850152600160d01b820481161515610140850152600160d81b9091041615156101608301529083529092019101611464565b50505050905060006001905060005b60148160ff16101561074a57828160ff166014811061156b5761156b613d62565b60200201516101400151611582576000915061074a565b6000838260ff166014811061159957611599613d62565b60200201516101200151848360ff16601481106115b8576115b8613d62565b60200201516101000151858460ff16601481106115d7576115d7613d62565b602002015160e001516115ea9190613e3b565b6115f49190613e3b565b60000b1315611606576000915061074a565b8061161081613d78565b91505061154a565b50600090565b50600190565b600160075462010000900460ff1660038111156116435761164361380d565b146116615760405163785b032760e11b815260040160405180910390fd5b600754610100900460ff166000805b8260ff168160ff1610156118a957600060088260ff166014811061169657611696613d62565b60408051610180810182526004929092029290920180548252600181015460208301526002810154928201929092526003909101546001600160a01b038116606083015260ff600160a01b820481166080840152600160a81b8204811660a0840152600160b01b8204811660c0840152600160b81b8204600090810b60e08501819052600160c01b8404820b610100860152600160c81b8404820b610120860152600160d01b840483161515610140860152600160d81b909304909116151561016084015291925012806117725750600081610100015160000b125b806117855750600081610120015160000b125b1561181a5760608101516001600160a01b03166117a3836001613db4565b60ff167fbcca734eb6b3e37bf45032aa7885d16fc72d3e10953810489a12a254d8ffacd760405160405180910390a3826117dc81613d78565b935050600160088360ff16601481106117f7576117f7613d62565b60040201600301601b6101000a81548160ff021916908315150217905550611896565b600061184e8261012001518361010001518460e0015161183a9190613e3b565b6118449190613e3b565b8360800151612b3a565b90508060088460ff166014811061186757611867613d62565b60040201600101819055508060088460ff166014811061188957611889613d62565b6004020160020181905550505b50806118a181613d78565b915050611670565b5060ff811615611a565760006118bf8284613e22565b6118ca906001613db4565b60ff166003548360ff166118de9190613d4b565b6118e9906003613d4b565b6118f39190613e5c565b905060005b8360ff168160ff161015611a5357600060088260ff166014811061191e5761191e613d62565b60408051610180810182526004929092029290920180548252600181015460208301526002810154928201929092526003909101546001600160a01b038116606083015260ff600160a01b820481166080840152600160a81b8204811660a0840152600160b01b8204811660c0840152600160b81b8204600090810b60e0850152600160c01b8304810b610100850152600160c81b8304900b610120840152600160d01b820481161515610140840152600160d81b9091041615156101608201819052909150611a405780516000906119f8908590613e70565b90508060088460ff1660148110611a1157611a11613d62565b60040201600101819055508060088460ff1660148110611a3357611a33613d62565b6004020160020181905550505b5080611a4b81613d78565b9150506118f8565b50505b6007805462ff00001916620200001790556040517f4fe64a1db9b488a7580160b96d00df1e33928b44702c888eec276fb8cfdaaaa190600090a15050565b611a9c611407565b611ab95760405163785b032760e11b815260040160405180910390fd5b611ac1612bb7565b6007805462ff0000191662010000179055565b605854839061ffff90811690821610611b00576040516311eb888760e31b815260040160405180910390fd5b600060598561ffff166101908110611b1a57611b1a613d62565b604080516101008082018352600293840294909401805460ff8082168452958104861660208401529194909392850192620100009092041690811115611b6257611b6261380d565b6002811115611b7357611b7361380d565b815281546020909101906301000000900460ff166002811115611b9857611b9861380d565b6002811115611ba957611ba961380d565b8152815460ff600160201b820481166020840152600160281b820481166040840152606090920191600160301b909104166005811115611beb57611beb61380d565b6005811115611bfc57611bfc61380d565b81526001918201546020909101529091508160c001516005811115611c2357611c2361380d565b14611c4157604051633018e60760e21b815260040160405180910390fd5b60008460f81b84604051602001611c59929190613e83565b604051602081830303815290604052805190602001209050808260e0015114611c9557604051633b74e52960e11b815260040160405180910390fd5b60008560ff166002811115611cac57611cac61380d565b90508060598861ffff166101908110611cc757611cc7613d62565b6002020160000160026101000a81548160ff02191690836002811115611cef57611cef61380d565b021790555060608301518351611d059083612c5f565b611d13846020015182612c5f565b6002826002811115611d2757611d2761380d565b60ff161115611d3957611d3988612d69565b6002816002811115611d4d57611d4d61380d565b60ff161115611d5f57611d5f8861301b565b806002811115611d7157611d7161380d565b826002811115611d8357611d8361380d565b03611d9657611d91886132af565b611e4f565b6000826002811115611daa57611daa61380d565b148015611dc857506002816002811115611dc657611dc661380d565b145b80611e0057506001826002811115611de257611de261380d565b148015611e0057506000816002811115611dfe57611dfe61380d565b145b80611e3857506002826002811115611e1a57611e1a61380d565b148015611e3857506001816002811115611e3657611e3661380d565b145b15611e4657611d918861301b565b611e4f88612d69565b60405161ffff8916907f7727bf3ad5db9c2c6c2cc2b086e5579bf2e4fd88a0c6b1abbaf783fc609565c990600090a25050505050505050565b611e906135e2565b8160ff81161580611eae575060075460ff6101009091048116908216115b15611ecc57604051630e0a2aa160e11b815260040160405180910390fd5b6000611ed9600185613e22565b905060088160ff1660148110611ef157611ef1613d62565b60408051610180810182526004929092029290920180548252600181015460208301526002810154928201929092526003909101546001600160a01b038116606083015260ff600160a01b820481166080840152600160a81b8204811660a0840152600160b01b8204811660c0840152600160b81b8204600090810b60e0850152600160c01b8304810b610100850152600160c81b8304900b610120840152600160d01b820481161515610140840152600160d81b90910416151561016082015292505050919050565b6000611fc561357f565b336000908152610379602052604081205460ff1690819003611ffa57604051637082284960e11b815260040160405180910390fd5b6000612007600183613e22565b9050600060088260ff166014811061202157612021613d62565b604080516101808101825260049290920292909201805482526001808201546020840152600282015493830193909352600301546001600160a01b038116606083015260ff600160a01b820481166080840152600160a81b8204811660a0840152600160b01b8204811660c08401819052600160b81b8304600090810b60e0860152600160c01b8404810b610100860152600160c81b8404810b610120860152600160d01b840483161515610140860152600160d81b9093049091161515610160840152919350916120f39190613db4565b9050601460ff8216111561211a57604051633fac4c7160e21b815260040160405180910390fd5b816080015160ff168260a00151896121329190613db4565b60ff16111561215457604051638ba4117960e01b815260040160405180910390fd5b60ff808416865260e086018a905287811660a08701528816608086015260585461ffff16955084605987610190811061218f5761218f613d62565b82516002918202929092018054602085015160ff9081166101000261ffff1990921694169390931792909217808355604084015191839162ff0000191690620100009084908111156121e3576121e361380d565b021790555060608201518154829063ff0000001916630100000083600281111561220f5761220f61380d565b02179055506080820151815460a084015160ff908116600160281b0265ff00000000001991909316600160201b021665ffff0000000019909116171780825560c083015190829060ff60301b1916600160301b8360058111156122745761227461380d565b021790555060e091909101516001909101556058805461ffff1690600061229a83613ec6565b91906101000a81548161ffff021916908361ffff160217905550508060088460ff16601481106122cc576122cc613d62565b6004020160030160166101000a81548160ff021916908360ff1602179055508760088460ff166014811061230257612302613d62565b6004020160030160158282829054906101000a900460ff166123249190613db4565b92506101000a81548160ff021916908360ff160217905550336001600160a01b03168661ffff167f18a47d8df22f178f89e665cc0fccf4ee175e91434c7b749c4a7607ffa4d33a6760405160405180910390a350505050509392505050565b6040516397f735d560e01b81523360048201526000907f00000000000000000000000000000000000000000000000000000000000000006001600160a01b0316906397f735d590602401602060405180830381865afa1580156123ea573d6000803e3d6000fd5b505050506040513d601f19601f8201168201806040525081019061240e9190613ee7565b1561242c5760405163865b533360e01b815260040160405180910390fd5b33612435610417565b3410156124555760405163e71ff98960e01b815260040160405180910390fd5b600060075462010000900460ff1660038111156124745761247461380d565b146124925760405163817b163760e01b815260040160405180910390fd5b6005546001600160a01b038083169116036124c05760405163031ee3ed60e51b815260040160405180910390fd5b6001600160a01b0381166000908152610379602052604090205460ff16156124fb57604051639bec841d60e01b815260040160405180910390fd5b600754610100900460ff16612511816001613db4565b9250601460ff841611156125385760405163380d3cc160e11b815260040160405180910390fd5b6001600160a01b038216600090815261037960205260409020805460ff191660ff85161790556125666135e2565b6001600160a01b03831660608201526003608082015234815280600860ff84166014811061259657612596613d62565b6004020160008201518160000155602082015181600101556040820151816002015560608201518160030160006101000a8154816001600160a01b0302191690836001600160a01b0316021790555060808201518160030160146101000a81548160ff021916908360ff16021790555060a08201518160030160156101000a81548160ff021916908360ff16021790555060c08201518160030160166101000a81548160ff021916908360ff16021790555060e08201518160030160176101000a81548160ff021916908360000b60ff1602179055506101008201518160030160186101000a81548160ff021916908360000b60ff1602179055506101208201518160030160196101000a81548160ff021916908360000b60ff16021790555061014082015181600301601a6101000a81548160ff02191690831515021790555061016082015181600301601b6101000a81548160ff0219169083151502179055509050506007600181819054906101000a900460ff168092919061271a90613d78565b91906101000a81548160ff021916908360ff16021790555050826001600160a01b03168460ff167f5be3b1880f42d49148565384a4f51ec5053b2d86130110067dfb4defd3919fe460405160405180910390a350505090565b336001600160a01b037f000000000000000000000000000000000000000000000000000000000000000016146127bc57604051633f9db83960e01b815260040160405180910390fd5b600360075462010000900460ff1660038111156127db576127db61380d565b146127f95760405163ad6418ff60e01b815260040160405180910390fd5b6058805461ffff1916905561281060596000613646565b600754610100900460ff1660005b8160ff168160ff16101561287f57600060088260ff166014811061284457612844613d62565b60040201600301546001600160a01b0316600090815261037960205260409020805460ff19169055508061287781613d78565b91505061281e565b506007805461ff001916905561289760086000613656565b6128a5878787878787613499565b50505050505050565b605854819061ffff908116908216106128da576040516311eb888760e31b815260040160405180910390fd5b600060598361ffff1661019081106128f4576128f4613d62565b604080516101008082018352600293840294909401805460ff808216845295810486166020840152919490939285019262010000909204169081111561293c5761293c61380d565b600281111561294d5761294d61380d565b815281546020909101906301000000900460ff1660028111156129725761297261380d565b60028111156129835761298361380d565b8152815460ff600160201b820481166020840152600160281b820481166040840152606090920191600160301b9091041660058111156129c5576129c561380d565b60058111156129d6576129d661380d565b8152600191820154602091820152336000908152610379909152604090205491925060ff90911690612a089082613e22565b60ff16826000015160ff1614612a31576040516334e24b8360e21b815260040160405180910390fd5b60c08201516000816005811115612a4a57612a4a61380d565b14612a6857604051637021339d60e11b815260040160405180910390fd5b6080830151835160089060ff1660148110612a8557612a85613d62565b6004020160030160158282829054906101000a900460ff16612aa79190613e22565b92506101000a81548160ff021916908360ff160217905550600260598661ffff166101908110612ad957612ad9613d62565b60020201805460ff60301b1916600160301b836005811115612afd57612afd61380d565b0217905550604051339061ffff8716907f34d66c87f348a9492b2a7fe1463b02de9cab509ca7872ee83878909d9805c3a890600090a35050505050565b6000808360000b1215612b4f57506000612bb1565b8260000b600014612b6b5760048260ff161115612b6b57600491505b60006003548360ff16612b7e9190613d4b565b6001549091506103e890612b959060ff1682613f09565b612ba39061ffff1683613d4b565b612bad9190613e5c565b9150505b92915050565b60585461ffff1660005b8161ffff168161ffff161015612c5b57600160598261ffff166101908110612beb57612beb613d62565b6002020154600160301b900460ff166005811115612c0b57612c0b61380d565b03612c4957612c1981612d69565b60405161ffff8216907f7727bf3ad5db9c2c6c2cc2b086e5579bf2e4fd88a0c6b1abbaf783fc609565c990600090a25b80612c5381613ec6565b915050612bc1565b5050565b6000816002811115612c7357612c7361380d565b03612ccd5760088260ff1660148110612c8e57612c8e613d62565b600402016003018054600160b81b900460000b906017612cad83613f24565b91906101000a81548160ff021916908360000b60ff160217905550505050565b6001816002811115612ce157612ce161380d565b03612d1b5760088260ff1660148110612cfc57612cfc613d62565b600402016003018054600160c01b900460000b906018612cad83613f24565b6002816002811115612d2f57612d2f61380d565b03612c5b5760088260ff1660148110612d4a57612d4a613d62565b600402016003018054600160c81b900460000b906019612cad83613f24565b600060598261ffff166101908110612d8357612d83613d62565b604080516101008082018352600293840294909401805460ff8082168452958104861660208401529194909392850192620100009092041690811115612dcb57612dcb61380d565b6002811115612ddc57612ddc61380d565b815281546020909101906301000000900460ff166002811115612e0157612e0161380d565b6002811115612e1257612e1261380d565b8152815460ff600160201b820481166020840152600160281b820481166040840152606090920191600160301b909104166005811115612e5457612e5461380d565b6005811115612e6557612e6561380d565b815260019190910154602091820152815190820151919250906005605961ffff86166101908110612e9857612e98613d62565b60020201805460ff60301b1916600160301b836005811115612ebc57612ebc61380d565b0217905550826080015160088360ff1660148110612edc57612edc613d62565b6004020160030160158282829054906101000a900460ff16612efe9190613e22565b92506101000a81548160ff021916908360ff160217905550826080015160088360ff1660148110612f3157612f31613d62565b6004020160030160148282829054906101000a900460ff16612f539190613e22565b92506101000a81548160ff021916908360ff1602179055508260a0015160088260ff1660148110612f8657612f86613d62565b6004020160030160158282829054906101000a900460ff16612fa89190613e22565b92506101000a81548160ff021916908360ff160217905550826080015160088260ff1660148110612fdb57612fdb613d62565b6004020160030160148282829054906101000a900460ff16612ffd9190613db4565b92506101000a81548160ff021916908360ff16021790555050505050565b600060598261ffff16610190811061303557613035613d62565b604080516101008082018352600293840294909401805460ff808216845295810486166020840152919490939285019262010000909204169081111561307d5761307d61380d565b600281111561308e5761308e61380d565b815281546020909101906301000000900460ff1660028111156130b3576130b361380d565b60028111156130c4576130c461380d565b8152815460ff600160201b820481166020840152600160281b820481166040840152606090920191600160301b9091041660058111156131065761310661380d565b60058111156131175761311761380d565b815260019190910154602091820152815190820151919250906004605961ffff8616610190811061314a5761314a613d62565b60020201805460ff60301b1916600160301b83600581111561316e5761316e61380d565b0217905550826080015160088360ff166014811061318e5761318e613d62565b6004020160030160158282829054906101000a900460ff166131b09190613e22565b92506101000a81548160ff021916908360ff1602179055508260a0015160088360ff16601481106131e3576131e3613d62565b6004020160030160148282829054906101000a900460ff166132059190613db4565b92506101000a81548160ff021916908360ff1602179055508260a0015160088260ff166014811061323857613238613d62565b6004020160030160158282829054906101000a900460ff1661325a9190613e22565b92506101000a81548160ff021916908360ff1602179055508260a0015160088260ff166014811061328d5761328d613d62565b6004020160030160148282829054906101000a900460ff16612ffd9190613e22565b600060598261ffff1661019081106132c9576132c9613d62565b604080516101008082018352600293840294909401805460ff80821684529581048616602084015291949093928501926201000090920416908111156133115761331161380d565b60028111156133225761332261380d565b815281546020909101906301000000900460ff1660028111156133475761334761380d565b60028111156133585761335861380d565b8152815460ff600160201b820481166020840152600160281b820481166040840152606090920191600160301b90910416600581111561339a5761339a61380d565b60058111156133ab576133ab61380d565b815260019190910154602091820152815190820151919250906003605961ffff861661019081106133de576133de613d62565b60020201805460ff60301b1916600160301b8360058111156134025761340261380d565b0217905550826080015160088360ff166014811061342257613422613d62565b6004020160030160158282829054906101000a900460ff166134449190613e22565b92506101000a81548160ff021916908360ff1602179055508260a0015160088260ff166014811061347757613477613d62565b6004020160030160158282829054906101000a900460ff16612ffd9190613e22565b60008690556001805460ff191660ff8781169190911790915560038590556004849055600580546001600160a01b0319166001600160a01b0385161790556007805462ff00ff191691831691821790556134f69062015180613f39565b6135059062ffffff1642613e70565b600681905550600060146003600661351d9190613f60565b6135279190613f82565b6040805160608101825260ff83168082526020820181905291810191909152909150613557906002906003613665565b5050505050505050565b60405180606001604052806003906020820280368337509192915050565b6040805161010081018252600080825260208201819052918101829052606081018290526080810182905260a0810182905260c0810182905260e081019190915290565b6040518061010001604052806008906020820280368337509192915050565b6040805161018081018252600080825260208201819052918101829052606081018290526080810182905260a0810182905260c0810182905260e0810182905261010081018290526101208101829052610140810182905261016081019190915290565b5061082c906103208101906136f8565b5061082c90605081019061371e565b6001830191839082156136e85791602002820160005b838211156136b957835183826101000a81548160ff021916908360ff160217905550926020019260010160208160000104928301926001030261367b565b80156136e65782816101000a81549060ff02191690556001016020816000010492830192600103026136b9565b505b506136f4929150613752565b5090565b5b808211156136f457805466ffffffffffffff19168155600060018201556002016136f9565b5b808211156136f45760008082556001820181905560028201556003810180546001600160e01b031916905560040161371f565b5b808211156136f45760008155600101613753565b60006101208083018a8452602061ffff8b168186015289604086015288606086015287608086015260a085018760005b60038110156137b757815160ff1683529183019190830190600101613797565b5050506101008501929092528451908190526101408401918086019160005b818110156137fb5783516001600160a01b0316855293820193928201926001016137d6565b50929c9b505050505050505050505050565b634e487b7160e01b600052602160045260246000fd5b60208101600483106138375761383761380d565b91905290565b6003811061384d5761384d61380d565b9052565b6006811061384d5761384d61380d565b602080825282518282018190526000919060409081850190868401855b8281101561391357815160ff80825116865280888301511688870152868201516138aa8888018261383d565b506060808301516138bd8289018261383d565b50506080828101519091169086015260a0808201516138e08288018260ff169052565b505060c0808201516138f482880182613851565b505060e09081015190850152610100909301929085019060010161387e565b5091979650505050505050565b60ff8116811461082c57600080fd5b634e487b7160e01b600052604160045260246000fd5b604051601f8201601f1916810167ffffffffffffffff8111828210171561396e5761396e61392f565b604052919050565b60008060e0838503121561398957600080fd5b823561399481613920565b91506020603f840185136139a757600080fd5b60405160c0810181811067ffffffffffffffff821117156139ca576139ca61392f565b6040528060e08601878111156139df57600080fd5b8387015b818110156139fa57803583529184019184016139e3565b50505080925050509250929050565b8051825260208101516020830152604081015160408301526060810151613a3b60608401826001600160a01b03169052565b506080810151613a50608084018260ff169052565b5060a0810151613a6560a084018260ff169052565b5060c0810151613a7a60c084018260ff169052565b5060e0810151613a8f60e084018260000b9052565b5061010080820151613aa58285018260000b9052565b505061012080820151613abc8285018260000b9052565b505061014081810151151590830152610160908101511515910152565b6020808252825182820181905260009190848201906040850190845b81811015613b1c57613b08838551613a09565b928401926101809290920191600101613af5565b50909695505050505050565b803561ffff81168114613b3a57600080fd5b919050565b60008060408385031215613b5257600080fd5b613b5b83613b28565b9150602083013560038110613b6f57600080fd5b809150509250929050565b600080600060608486031215613b8f57600080fd5b613b9884613b28565b9250602080850135613ba981613920565b9250604085013567ffffffffffffffff80821115613bc657600080fd5b818701915087601f830112613bda57600080fd5b813581811115613bec57613bec61392f565b613bfe601f8201601f19168501613945565b91508082528884828501011115613c1457600080fd5b80848401858401376000848284010152508093505050509250925092565b600060208284031215613c4457600080fd5b8135613c4f81613920565b9392505050565b6101808101612bb18284613a09565b600080600060608486031215613c7a57600080fd5b833592506020840135613c8c81613920565b91506040840135613c9c81613920565b809150509250925092565b60008060008060008060c08789031215613cc057600080fd5b863595506020870135613cd281613920565b9450604087013593506060870135925060808701356001600160a01b0381168114613cfc57600080fd5b915060a0870135613d0c81613920565b809150509295509295509295565b600060208284031215613d2c57600080fd5b613c4f82613b28565b634e487b7160e01b600052601160045260246000fd5b8082028115828204841417612bb157612bb1613d35565b634e487b7160e01b600052603260045260246000fd5b600060ff821660ff8103613d8e57613d8e613d35565b60010192915050565b600060ff821680613daa57613daa613d35565b6000190192915050565b60ff8181168382160190811115612bb157612bb1613d35565b634e487b7160e01b600052601260045260246000fd5b600060ff831680613df657613df6613dcd565b8060ff84160691505092915050565b600060208284031215613e1757600080fd5b8151613c4f81613920565b60ff8281168282160390811115612bb157612bb1613d35565b600081810b9083900b01607f8113607f1982121715612bb157612bb1613d35565b600082613e6b57613e6b613dcd565b500490565b80820180821115612bb157612bb1613d35565b6001600160f81b0319831681528151600090815b81811015613eb45760208186018101516001868401015201613e97565b50600092016001019182525092915050565b600061ffff808316818103613edd57613edd613d35565b6001019392505050565b600060208284031215613ef957600080fd5b81518015158114613c4f57600080fd5b61ffff82811682821603908082111561074a5761074a613d35565b600081810b60808101613daa57613daa613d35565b62ffffff818116838216028082169190828114613f5857613f58613d35565b505092915050565b600060ff831680613f7357613f73613dcd565b8060ff84160491505092915050565b60ff818116838216029081169081811461074a5761074a613d3556fea26469706673582212203f50501e0fcfa9416f390afb53f49efddfe439c5256ceecf220161491d09813364736f6c63430008130033a26469706673582212202a737116bc3d92b304b2ca7e1a08846e84a21e1171efedadba5dd92760ce58cd64736f6c63430008130033","linkReferences":{}},"methodIdentifiers":{"ban(address)":"97c3ccd8","banFromGame(uint256,address)":"681956a5","createGame(uint8)":"e580f6ab","generateRandomNumberFromSeed(uint256,uint8)":"f6cca6e2","getGame(uint256)":"a2f77bcc","getGames()":"c04c5947","getOpenGames()":"e75d7e3e","getRealGameId(uint256)":"412650ba","isBanned(address)":"97f735d5","owner()":"8da5cb5b","renounceOwnership()":"715018a6","setGameCreationFee(uint256)":"0be75449","setStarCost(uint256)":"6e9b2dc0","setWinningsCut(uint8)":"5b282cba","transferOwnership(address)":"f2fde38b","unban(address)":"b9f14557","withdraw()":"3ccfd60b","withdrawGameCut(uint256)":"830d5459"},"id":25}