{"abi":[{"type":"constructor","inputs":[{"name":"factory","type":"address","internalType":"address"},{"name":"gameId","type":"uint256","internalType":"uint256"},{"name":"winningsCut","type":"uint8","internalType":"uint8"},{"name":"starCost","type":"uint256","internalType":"uint256"},{"name":"m1CashCost","type":"uint256","internalType":"uint256"},{"name":"dealer","type":"address","internalType":"address"},{"name":"duration","type":"uint8","internalType":"uint8"}],"stateMutability":"nonpayable"},{"type":"function","name":"answerMatch","inputs":[{"name":"matchId","type":"uint16","internalType":"uint16"},{"name":"card","type":"uint8","internalType":"enum RestrictedRPSGame.Card"}],"outputs":[],"stateMutability":"nonpayable"},{"type":"function","name":"cancelMatch","inputs":[{"name":"matchId","type":"uint16","internalType":"uint16"}],"outputs":[],"stateMutability":"nonpayable"},{"type":"function","name":"closeGame","inputs":[],"outputs":[],"stateMutability":"nonpayable"},{"type":"function","name":"closeMatch","inputs":[{"name":"matchId","type":"uint16","internalType":"uint16"},{"name":"card","type":"uint8","internalType":"uint8"},{"name":"secret","type":"string","internalType":"string"}],"outputs":[],"stateMutability":"nonpayable"},{"type":"function","name":"computeRewards","inputs":[],"outputs":[],"stateMutability":"nonpayable"},{"type":"function","name":"finishGame","inputs":[],"outputs":[],"stateMutability":"nonpayable"},{"type":"function","name":"getBasicJoiningCost","inputs":[],"outputs":[{"name":"","type":"uint256","internalType":"uint256"}],"stateMutability":"view"},{"type":"function","name":"getDealer","inputs":[],"outputs":[{"name":"","type":"address","internalType":"address"}],"stateMutability":"view"},{"type":"function","name":"getDuration","inputs":[],"outputs":[{"name":"","type":"uint8","internalType":"uint8"}],"stateMutability":"view"},{"type":"function","name":"getGameId","inputs":[],"outputs":[{"name":"","type":"uint256","internalType":"uint256"}],"stateMutability":"view"},{"type":"function","name":"getGameInfo","inputs":[],"outputs":[{"name":"","type":"uint256","internalType":"uint256"},{"name":"","type":"uint16","internalType":"uint16"},{"name":"","type":"uint256","internalType":"uint256"},{"name":"","type":"uint256","internalType":"uint256"},{"name":"","type":"uint256","internalType":"uint256"},{"name":"","type":"uint8[3]","internalType":"uint8[3]"},{"name":"","type":"address[]","internalType":"address[]"}],"stateMutability":"view"},{"type":"function","name":"getMatches","inputs":[],"outputs":[{"name":"","type":"tuple[]","internalType":"struct RestrictedRPSGame.Match[]","components":[{"name":"realPlayer1Id","type":"uint8","internalType":"uint8"},{"name":"realPlayer2Id","type":"uint8","internalType":"uint8"},{"name":"player1Card","type":"uint8","internalType":"enum RestrictedRPSGame.Card"},{"name":"player2Card","type":"uint8","internalType":"enum RestrictedRPSGame.Card"},{"name":"player1Bet","type":"uint8","internalType":"uint8"},{"name":"player2Bet","type":"uint8","internalType":"uint8"},{"name":"result","type":"uint8","internalType":"enum RestrictedRPSGame.MatchState"},{"name":"player1Hash","type":"bytes32","internalType":"bytes32"}]}],"stateMutability":"view"},{"type":"function","name":"getNbrPlayers","inputs":[],"outputs":[{"name":"","type":"uint8","internalType":"uint8"}],"stateMutability":"view"},{"type":"function","name":"getPlayerState","inputs":[{"name":"playerId","type":"uint8","internalType":"uint8"}],"outputs":[{"name":"","type":"tuple","internalType":"struct RestrictedRPSGame.PlayerState","components":[{"name":"paidAmount","type":"uint256","internalType":"uint256"},{"name":"rewards","type":"uint256","internalType":"uint256"},{"name":"amountToPay","type":"uint256","internalType":"uint256"},{"name":"player","type":"address","internalType":"address"},{"name":"nbrStars","type":"uint8","internalType":"uint8"},{"name":"nbrStarsLocked","type":"uint8","internalType":"uint8"},{"name":"nbrOfferedMatches","type":"uint8","internalType":"uint8"},{"name":"nbrRocks","type":"int8","internalType":"int8"},{"name":"nbrPapers","type":"int8","internalType":"int8"},{"name":"nbrScissors","type":"int8","internalType":"int8"},{"name":"cardsGiven","type":"bool","internalType":"bool"},{"name":"cheated","type":"bool","internalType":"bool"}]}],"stateMutability":"view"},{"type":"function","name":"getPlayersState","inputs":[],"outputs":[{"name":"","type":"tuple[]","internalType":"struct RestrictedRPSGame.PlayerState[]","components":[{"name":"paidAmount","type":"uint256","internalType":"uint256"},{"name":"rewards","type":"uint256","internalType":"uint256"},{"name":"amountToPay","type":"uint256","internalType":"uint256"},{"name":"player","type":"address","internalType":"address"},{"name":"nbrStars","type":"uint8","internalType":"uint8"},{"name":"nbrStarsLocked","type":"uint8","internalType":"uint8"},{"name":"nbrOfferedMatches","type":"uint8","internalType":"uint8"},{"name":"nbrRocks","type":"int8","internalType":"int8"},{"name":"nbrPapers","type":"int8","internalType":"int8"},{"name":"nbrScissors","type":"int8","internalType":"int8"},{"name":"cardsGiven","type":"bool","internalType":"bool"},{"name":"cheated","type":"bool","internalType":"bool"}]}],"stateMutability":"view"},{"type":"function","name":"getStarCost","inputs":[],"outputs":[{"name":"","type":"uint256","internalType":"uint256"}],"stateMutability":"view"},{"type":"function","name":"getState","inputs":[],"outputs":[{"name":"","type":"uint8","internalType":"enum RestrictedRPSGame.GameState"}],"stateMutability":"view"},{"type":"function","name":"givePlayerHand","inputs":[{"name":"playerId","type":"uint8","internalType":"uint8"},{"name":"rng","type":"uint8[6]","internalType":"uint8[6]"}],"outputs":[],"stateMutability":"nonpayable"},{"type":"function","name":"isFinished","inputs":[],"outputs":[{"name":"","type":"bool","internalType":"bool"}],"stateMutability":"view"},{"type":"function","name":"joinGame","inputs":[],"outputs":[{"name":"playerId","type":"uint8","internalType":"uint8"}],"stateMutability":"payable"},{"type":"function","name":"offerMatch","inputs":[{"name":"hashedCard","type":"bytes32","internalType":"bytes32"},{"name":"player1Bet","type":"uint8","internalType":"uint8"},{"name":"player2Bet","type":"uint8","internalType":"uint8"}],"outputs":[{"name":"matchId","type":"uint16","internalType":"uint16"}],"stateMutability":"nonpayable"},{"type":"function","name":"resetGame","inputs":[{"name":"gameId","type":"uint256","internalType":"uint256"},{"name":"winningsCut","type":"uint8","internalType":"uint8"},{"name":"starCost","type":"uint256","internalType":"uint256"},{"name":"m1CashCost","type":"uint256","internalType":"uint256"},{"name":"dealer","type":"address","internalType":"address"},{"name":"duration","type":"uint8","internalType":"uint8"}],"outputs":[],"stateMutability":"nonpayable"},{"type":"function","name":"withdraw","inputs":[],"outputs":[],"stateMutability":"nonpayable"},{"type":"event","name":"ComputedRewards","inputs":[],"anonymous":false},{"type":"event","name":"GameClosed","inputs":[],"anonymous":false},{"type":"event","name":"GameJoined","inputs":[{"name":"playerId","type":"uint8","indexed":true,"internalType":"uint8"},{"name":"player","type":"address","indexed":true,"internalType":"address"}],"anonymous":false},{"type":"event","name":"MatchAnswered","inputs":[{"name":"matchId","type":"uint256","indexed":true,"internalType":"uint256"},{"name":"player","type":"address","indexed":true,"internalType":"address"}],"anonymous":false},{"type":"event","name":"MatchCancelled","inputs":[{"name":"matchId","type":"uint256","indexed":true,"internalType":"uint256"},{"name":"player","type":"address","indexed":true,"internalType":"address"}],"anonymous":false},{"type":"event","name":"MatchClosed","inputs":[{"name":"matchId","type":"uint256","indexed":true,"internalType":"uint256"}],"anonymous":false},{"type":"event","name":"MatchCreated","inputs":[{"name":"matchId","type":"uint256","indexed":true,"internalType":"uint256"},{"name":"player","type":"address","indexed":true,"internalType":"address"}],"anonymous":false},{"type":"event","name":"PlayerCheated","inputs":[{"name":"playerId","type":"uint8","indexed":true,"internalType":"uint8"},{"name":"player","type":"address","indexed":true,"internalType":"address"}],"anonymous":false},{"type":"event","name":"PlayerWasGivenCards","inputs":[{"name":"playerId","type":"uint8","indexed":true,"internalType":"uint8"}],"anonymous":false},{"type":"error","name":"AnsweredMatchCannotBeCancelled","inputs":[]},{"type":"error","name":"CannotAnswerYourOwnMatch","inputs":[]},{"type":"error","name":"CannotResetOpenGame","inputs":[]},{"type":"error","name":"DealerCannotJoin","inputs":[]},{"type":"error","name":"GameFull","inputs":[]},{"type":"error","name":"GameNotClosable","inputs":[]},{"type":"error","name":"GameNotClosed","inputs":[]},{"type":"error","name":"GameNotFinished","inputs":[]},{"type":"error","name":"GameNotOpen","inputs":[]},{"type":"error","name":"InvalidMatchId","inputs":[]},{"type":"error","name":"InvalidPlayerId","inputs":[]},{"type":"error","name":"MatchAlreadyPlayed","inputs":[]},{"type":"error","name":"MatchNotAnswered","inputs":[]},{"type":"error","name":"NotAPlayer","inputs":[]},{"type":"error","name":"NotEnoughAvailableStars","inputs":[]},{"type":"error","name":"NotTheRightPlayer","inputs":[]},{"type":"error","name":"OnlyDealer","inputs":[]},{"type":"error","name":"OnlyFactory","inputs":[]},{"type":"error","name":"PlayerAlreadyJoined","inputs":[]},{"type":"error","name":"PlayerBanned","inputs":[]},{"type":"error","name":"PlayerHasOfferedTooManyMatches","inputs":[]},{"type":"error","name":"SendMore","inputs":[]},{"type":"error","name":"WrongCardHash","inputs":[]}],"bytecode":{"object":"0x60a06040523480156200001157600080fd5b506040516200437a3803806200437a833981016040819052620000349162000210565b6001600160a01b038716608052620000518686868686866200005e565b505050505050506200033d565b60008690556001805460ff191660ff8781169190911790915560038590556004849055600580546001600160a01b0319166001600160a01b0385161790556007805462ff00ff19169183169182179055620000bd9062015180620002a0565b620000ce9062ffffff1642620002ca565b6006819055506000601460036006620000e89190620002e6565b620000f4919062000317565b6040805160608101825260ff831680825260208201819052918101919091529091506200012690600290600362000130565b5050505050505050565b600183019183908215620001b85791602002820160005b838211156200018757835183826101000a81548160ff021916908360ff160217905550926020019260010160208160000104928301926001030262000147565b8015620001b65782816101000a81549060ff021916905560010160208160000104928301926001030262000187565b505b50620001c6929150620001ca565b5090565b5b80821115620001c65760008155600101620001cb565b80516001600160a01b0381168114620001f957600080fd5b919050565b805160ff81168114620001f957600080fd5b600080600080600080600060e0888a0312156200022c57600080fd5b6200023788620001e1565b9650602088015195506200024e60408901620001fe565b945060608801519350608088015192506200026c60a08901620001e1565b91506200027c60c08901620001fe565b905092959891949750929550565b634e487b7160e01b600052601160045260246000fd5b62ffffff818116838216028082169190828114620002c257620002c26200028a565b505092915050565b80820180821115620002e057620002e06200028a565b92915050565b600060ff8316806200030857634e487b7160e01b600052601260045260246000fd5b8060ff84160491505092915050565b60ff81811683821602908116908181146200033657620003366200028a565b5092915050565b608051613ff762000383600039600081816105e401528181610c3b01528181610c860152818161132001528181612357015281816126f101526127c70152613ff76000f3fe6080604052600436106101405760003560e01c80637c1b7f8a116100b6578063b6b3b64e1161006f578063b6b3b64e1461036a578063c0bd83511461039d578063d4f77b1c146103b2578063e3b9b110146103ba578063ec18810a146103da578063fcada10a146103fa57600080fd5b80637c1b7f8a146102a55780639cf6d1af146102ba5780639fecb69f146102e2578063a2b19a49146102f7578063a6d3571d14610317578063ad2e8c9b1461034457600080fd5b80633ccfd60b116101085780633ccfd60b146101ff578063525f5093146102145780635e7303d414610236578063651ffda91461024b578063786b844b1461026b5780637b3529621461028057600080fd5b80630f9361c3146101455780631746bd1b1461016d5780631865c57d146101955780632c16cb6c146101bb5780632c70120e146101dd575b600080fd5b34801561015157600080fd5b5061015a610417565b6040519081526020015b60405180910390f35b34801561017957600080fd5b5061018261042c565b60405161016497969594939291906137b0565b3480156101a157600080fd5b5060075462010000900460ff16604051610164919061386c565b3480156101c757600080fd5b506101db6101d63660046138e3565b61059d565b005b3480156101e957600080fd5b506101f2610a3f565b604051610164919061399f565b34801561020b57600080fd5b506101db610bf3565b34801561022057600080fd5b50610229610cd1565b6040516101649190613b2e565b34801561024257600080fd5b5060035461015a565b34801561025757600080fd5b506101db610266366004613b8f565b610e52565b34801561027757600080fd5b506101db611158565b34801561028c57600080fd5b506102956113c3565b6040519015158152602001610164565b3480156102b157600080fd5b506101db6115e0565b3480156102c657600080fd5b506005546040516001600160a01b039091168152602001610164565b3480156102ee57600080fd5b506101db611a50565b34801561030357600080fd5b506101db610312366004613bca565b611a90565b34801561032357600080fd5b50610337610332366004613c80565b611e44565b6040516101649190613ca2565b34801561035057600080fd5b5060075460ff165b60405160ff9091168152602001610164565b34801561037657600080fd5b5061038a610385366004613cb1565b611f77565b60405161ffff9091168152602001610164565b3480156103a957600080fd5b5060005461015a565b61035861233f565b3480156103c657600080fd5b506101db6103d5366004613ced565b6127bc565b3480156103e657600080fd5b506101db6103f5366004613d5a565b6128f7565b34801561040657600080fd5b50600754610100900460ff16610358565b6003805460009161042791613d8b565b905090565b600080600080600061043c6135aa565b600754606090610100900460ff1660008167ffffffffffffffff8111156104655761046561389c565b60405190808252806020026020018201604052801561048e578160200160208202803683370190505b50905060005b8260ff168160ff1610156105125760088160ff16601481106104b8576104b8613da2565b6004020160030160009054906101000a90046001600160a01b0316828260ff16815181106104e8576104e8613da2565b6001600160a01b03909216602092830291909101909101528061050a81613db8565b915050610494565b5060005460585460038054600454600654604080516060810190915261ffff90951694929391929091600291889183908282826020028201916000905b825461010083900a900460ff1681526020600192830181810494850194909303909202910180841161054f579050505050505091509850985098509850985098509850505090919293949596565b8160ff811615806105bb575060075460ff6101009091048116908216115b156105d95760405163786a04a360e11b815260040160405180910390fd5b336001600160a01b037f0000000000000000000000000000000000000000000000000000000000000000161461062257604051630636a15760e11b815260040160405180910390fd5b61062a6135c8565b6106326135aa565b6040805160608101918290526000916002906003908285855b825461010083900a900460ff1681526020600192830181810494850194909303909202910180841161064b5790505050505050905060008061068b6135aa565b60088360ff161080156106b65750805115806106a957506020810151155b806106b657506040810151155b15610780576000848360ff16600381106106d2576106d2613da2565b602002015160ff1611156107405781868460ff16600881106106f6576106f6613da2565b60ff90921660209290920201528261070d81613db8565b935050838260ff166003811061072557610725613da2565b6020020180519061073582613dd7565b60ff16905250610762565b6001818360ff166003811061075757610757613da2565b911515602090920201525b600361076f836001613df4565b6107799190613e23565b915061068b565b60005b60068160ff161015610866576000848a8360ff16600681106107a7576107a7613da2565b60200201516107b69190613e23565b9050878160ff16600881106107cd576107cd613da2565b60200201519350868460ff16600381106107e9576107e9613da2565b602002018051906107f982613db8565b60ff169052508761080b600187613e45565b60ff166008811061081e5761081e613da2565b6020020151888260ff166008811061083857610838613da2565b60ff90921660209290920201528461084f81613dd7565b95505050808061085e90613db8565b915050610783565b50845160028054602088015160408901516201000061010060ff19851660ff8087168990038116918217839004811695909503851690910261ffff199095161793909317838104831691909103821690920262ff00001992909216919091179091556000198b0191906008908316601481106108e4576108e4613da2565b6004020160030160176101000a81548160ff021916908360000b60ff160217905550856001600281111561091a5761091a613856565b60ff166003811061092d5761092d613da2565b602002015160088260ff166014811061094857610948613da2565b6004020160030160186101000a81548160ff021916908360000b60ff1602179055508560028081111561097d5761097d613856565b60ff166003811061099057610990613da2565b602002015160088260ff16601481106109ab576109ab613da2565b6004020160030160196101000a81548160ff021916908360000b60ff160217905550600160088260ff16601481106109e5576109e5613da2565b60040201600301601a6101000a81548160ff0219169083151502179055508960ff167f017debd7c79e4378a9deeb7a4c53031f98e52a78181b2a41737d6bcd1da0cad260405160405180910390a250505050505050505050565b60585460609061ffff1660008167ffffffffffffffff811115610a6457610a6461389c565b604051908082528060200260200182016040528015610a9d57816020015b610a8a6135e7565b815260200190600190039081610a825790505b50905060005b8261ffff168160ff161015610bec5760598160ff166101908110610ac957610ac9613da2565b604080516101008082018352600293840294909401805460ff8082168452958104861660208401529194909392850192620100009092041690811115610b1157610b11613856565b6002811115610b2257610b22613856565b815281546020909101906301000000900460ff166002811115610b4757610b47613856565b6002811115610b5857610b58613856565b8152815460ff600160201b820481166020840152600160281b820481166040840152606090920191600160301b909104166005811115610b9a57610b9a613856565b6005811115610bab57610bab613856565b8152602001600182015481525050828260ff1681518110610bce57610bce613da2565b60200260200101819052508080610be490613db8565b915050610aa3565b5092915050565b600360075462010000900460ff166003811115610c1257610c12613856565b14610c305760405163916bb70360e01b815260040160405180910390fd5b336001600160a01b037f00000000000000000000000000000000000000000000000000000000000000001614610c7957604051630636a15760e11b815260040160405180910390fd5b6040516001600160a01b037f000000000000000000000000000000000000000000000000000000000000000016904780156108fc02916000818181858888f19350505050158015610cce573d6000803e3d6000fd5b50565b600754606090610100900460ff1660008167ffffffffffffffff811115610cfa57610cfa61389c565b604051908082528060200260200182016040528015610d3357816020015b610d2061362b565b815260200190600190039081610d185790505b50905060005b8260ff168160ff161015610bec5760088160ff1660148110610d5d57610d5d613da2565b60408051610180810182526004929092029290920180548252600181015460208301526002810154928201929092526003909101546001600160a01b038116606083015260ff600160a01b820481166080840152600160a81b8204811660a0840152600160b01b8204811660c0840152600160b81b8204600090810b60e0850152600160c01b8304810b610100850152600160c81b8304900b610120840152600160d01b820481161515610140840152600160d81b90910481161515610160830152835184918416908110610e3457610e34613da2565b60200260200101819052508080610e4a90613db8565b915050610d39565b605854829061ffff90811690821610610e7e576040516324f45c6160e21b815260040160405180910390fd5b336000908152610379602052604081205460ff1690819003610eb35760405163abca351760e01b815260040160405180910390fd5b6000610ec0600183613e45565b9050600060598661ffff166101908110610edc57610edc613da2565b60020201805490915060ff90811690831603610f0b576040516326cbced560e11b815260040160405180910390fd5b60008154600160301b900460ff166005811115610f2a57610f2a613856565b14610f485760405163d41fc5d360e01b815260040160405180910390fd5b600060088360ff1660148110610f6057610f60613da2565b60408051610180810182526004929092029290920180548252600181015460208301526002810154928201929092526003909101546001600160a01b038116606083015260ff600160a01b8204811660808401819052600160a81b8304821660a08501819052600160b01b8404831660c0860152600160b81b8404600090810b60e0870152600160c01b8504810b610100870152600160c81b8504900b610120860152600160d01b840483161515610140860152600160d81b9093048216151561016085015285549394509261103f9291600160281b90910416613df4565b60ff1611156110615760405163afae62f560e01b815260040160405180910390fd5b815460ff84166101000261ff00198216811784558791849163ff000000191663ff00ff00199091161763010000008360028111156110a1576110a1613856565b0217905550815460ff60301b1916600160301b1780835560ff600160281b9091048116906008908516601481106110da576110da613da2565b6004020160030160158282829054906101000a900460ff166110fc9190613df4565b92506101000a81548160ff021916908360ff160217905550336001600160a01b03168761ffff167f01b120bec3d4ba9705e9f5f6c7aa115993959878ac9533a84cb359ffe642823060405160405180910390a350505050505050565b600260075462010000900460ff16600381111561117757611177613856565b14611195576040516337d7b4a960e21b815260040160405180910390fd5b600754610100900460ff1660005b8160ff168160ff1610156113ae57600060088260ff16601481106111c9576111c9613da2565b60408051610180810182526004929092029290920180548252600181015460208301526002810154928201839052600301546001600160a01b0381166060830181905260ff600160a01b830481166080850152600160a81b8304811660a0850152600160b01b8304811660c0850152600160b81b8304600090810b60e0860152600160c01b8404810b610100860152600160c81b8404900b610120850152600160d01b830481161515610140850152600160d81b909204909116151561016083015290925081156112f657600060088560ff16601481106112ac576112ac613da2565b6004020160020181905550806001600160a01b03166108fc839081150290604051600060405180830381858888f193505050501580156112f0573d6000803e3d6000fd5b50611398565b8261016001511561139857600054606084015160405163681956a560e01b81526001600160a01b037f0000000000000000000000000000000000000000000000000000000000000000169263681956a592611365926004019182526001600160a01b0316602082015260400190565b600060405180830381600087803b15801561137f57600080fd5b505af1158015611393573d6000803e3d6000fd5b505050505b50505080806113a690613db8565b9150506111a3565b50506007805462ff0000191662030000179055565b60008060075462010000900460ff1660038111156113e3576113e3613856565b146113ee5750600090565b4260065411156115da57600754610100900460ff166014036115d4576040805161028081019091526000906008601483835b828210156114f7576040805161018081018252600484028601805482526001808201546020808501919091526002830154948401949094526003909101546001600160a01b038116606084015260ff600160a01b820481166080850152600160a81b8204811660a0850152600160b01b8204811660c0850152600160b81b8204600090810b60e0860152600160c01b8304810b610100860152600160c81b8304900b610120850152600160d01b820481161515610140850152600160d81b9091041615156101608301529083529092019101611420565b50505050905060006001905060005b60148160ff161015610bec57828160ff166014811061152757611527613da2565b6020020151610140015161153e5760009150610bec565b6000838260ff166014811061155557611555613da2565b60200201516101200151848360ff166014811061157457611574613da2565b60200201516101000151858460ff166014811061159357611593613da2565b602002015160e001516115a69190613e5e565b6115b09190613e5e565b60000b13156115c25760009150610bec565b806115cc81613db8565b915050611506565b50600090565b50600190565b600160075462010000900460ff1660038111156115ff576115ff613856565b1461161d5760405163b7c3a5b360e01b815260040160405180910390fd5b600754610100900460ff166000805b8260ff168160ff16101561186557600060088260ff166014811061165257611652613da2565b60408051610180810182526004929092029290920180548252600181015460208301526002810154928201929092526003909101546001600160a01b038116606083015260ff600160a01b820481166080840152600160a81b8204811660a0840152600160b01b8204811660c0840152600160b81b8204600090810b60e08501819052600160c01b8404820b610100860152600160c81b8404820b610120860152600160d01b840483161515610140860152600160d81b9093049091161515610160840152919250128061172e5750600081610100015160000b125b806117415750600081610120015160000b125b156117d65760608101516001600160a01b031661175f836001613df4565b60ff167fbcca734eb6b3e37bf45032aa7885d16fc72d3e10953810489a12a254d8ffacd760405160405180910390a38261179881613db8565b935050600160088360ff16601481106117b3576117b3613da2565b60040201600301601b6101000a81548160ff021916908315150217905550611852565b600061180a8261012001518361010001518460e001516117f69190613e5e565b6118009190613e5e565b8360800151612b83565b90508060088460ff166014811061182357611823613da2565b60040201600101819055508060088460ff166014811061184557611845613da2565b6004020160020181905550505b508061185d81613db8565b91505061162c565b5060ff811615611a1257600061187b8284613e45565b611886906001613df4565b60ff166003548360ff1661189a9190613d8b565b6118a5906003613d8b565b6118af9190613e7f565b905060005b8360ff168160ff161015611a0f57600060088260ff16601481106118da576118da613da2565b60408051610180810182526004929092029290920180548252600181015460208301526002810154928201929092526003909101546001600160a01b038116606083015260ff600160a01b820481166080840152600160a81b8204811660a0840152600160b01b8204811660c0840152600160b81b8204600090810b60e0850152600160c01b8304810b610100850152600160c81b8304900b610120840152600160d01b820481161515610140840152600160d81b90910416151561016082018190529091506119fc5780516000906119b4908590613e93565b90508060088460ff16601481106119cd576119cd613da2565b60040201600101819055508060088460ff16601481106119ef576119ef613da2565b6004020160020181905550505b5080611a0781613db8565b9150506118b4565b50505b6007805462ff00001916620200001790556040517f4fe64a1db9b488a7580160b96d00df1e33928b44702c888eec276fb8cfdaaaa190600090a15050565b611a586113c3565b611a755760405163b7c3a5b360e01b815260040160405180910390fd5b611a7d612c00565b6007805462ff0000191662010000179055565b605854839061ffff90811690821610611abc576040516324f45c6160e21b815260040160405180910390fd5b600060598561ffff166101908110611ad657611ad6613da2565b604080516101008082018352600293840294909401805460ff8082168452958104861660208401529194909392850192620100009092041690811115611b1e57611b1e613856565b6002811115611b2f57611b2f613856565b815281546020909101906301000000900460ff166002811115611b5457611b54613856565b6002811115611b6557611b65613856565b8152815460ff600160201b820481166020840152600160281b820481166040840152606090920191600160301b909104166005811115611ba757611ba7613856565b6005811115611bb857611bb8613856565b81526001918201546020909101529091508160c001516005811115611bdf57611bdf613856565b14611bfd5760405163ead5e9fb60e01b815260040160405180910390fd5b60008460f81b84604051602001611c15929190613ea6565b604051602081830303815290604052805190602001209050808260e0015114611c515760405163018aa1cb60e21b815260040160405180910390fd5b60008560ff166002811115611c6857611c68613856565b90508060598861ffff166101908110611c8357611c83613da2565b6002020160000160026101000a81548160ff02191690836002811115611cab57611cab613856565b021790555060608301518351611cc19083612ca8565b611ccf846020015182612ca8565b6002826002811115611ce357611ce3613856565b60ff161115611cf557611cf588612db2565b6002816002811115611d0957611d09613856565b60ff161115611d1b57611d1b88613064565b806002811115611d2d57611d2d613856565b826002811115611d3f57611d3f613856565b03611d5257611d4d886132f8565b611e0b565b6000826002811115611d6657611d66613856565b148015611d8457506002816002811115611d8257611d82613856565b145b80611dbc57506001826002811115611d9e57611d9e613856565b148015611dbc57506000816002811115611dba57611dba613856565b145b80611df457506002826002811115611dd657611dd6613856565b148015611df457506001816002811115611df257611df2613856565b145b15611e0257611d4d88613064565b611e0b88612db2565b60405161ffff8916907f7727bf3ad5db9c2c6c2cc2b086e5579bf2e4fd88a0c6b1abbaf783fc609565c990600090a25050505050505050565b611e4c61362b565b8160ff81161580611e6a575060075460ff6101009091048116908216115b15611e885760405163786a04a360e11b815260040160405180910390fd5b6000611e95600185613e45565b905060088160ff1660148110611ead57611ead613da2565b60408051610180810182526004929092029290920180548252600181015460208301526002810154928201929092526003909101546001600160a01b038116606083015260ff600160a01b820481166080840152600160a81b8204811660a0840152600160b01b8204811660c0840152600160b81b8204600090810b60e0850152600160c01b8304810b610100850152600160c81b8304900b610120840152600160d01b820481161515610140840152600160d81b90910416151561016082015292505050919050565b6000611f816135e7565b336000908152610379602052604081205460ff1690819003611fb65760405163abca351760e01b815260040160405180910390fd5b6000611fc3600183613e45565b9050600060088260ff1660148110611fdd57611fdd613da2565b604080516101808101825260049290920292909201805482526001808201546020840152600282015493830193909352600301546001600160a01b038116606083015260ff600160a01b820481166080840152600160a81b8204811660a0840152600160b01b8204811660c08401819052600160b81b8304600090810b60e0860152600160c01b8404810b610100860152600160c81b8404810b610120860152600160d01b840483161515610140860152600160d81b9093049091161515610160840152919350916120af9190613df4565b9050601460ff821611156120d65760405163751121a560e11b815260040160405180910390fd5b816080015160ff168260a00151896120ee9190613df4565b60ff1611156121105760405163afae62f560e01b815260040160405180910390fd5b60ff808416865260e086018a905287811660a08701528816608086015260585461ffff16955084605987610190811061214b5761214b613da2565b82516002918202929092018054602085015160ff9081166101000261ffff1990921694169390931792909217808355604084015191839162ff00001916906201000090849081111561219f5761219f613856565b021790555060608201518154829063ff000000191663010000008360028111156121cb576121cb613856565b02179055506080820151815460a084015160ff908116600160281b0265ff00000000001991909316600160201b021665ffff0000000019909116171780825560c083015190829060ff60301b1916600160301b83600581111561223057612230613856565b021790555060e091909101516001909101556058805461ffff1690600061225683613ee9565b91906101000a81548161ffff021916908361ffff160217905550508060088460ff166014811061228857612288613da2565b6004020160030160166101000a81548160ff021916908360ff1602179055508760088460ff16601481106122be576122be613da2565b6004020160030160158282829054906101000a900460ff166122e09190613df4565b92506101000a81548160ff021916908360ff160217905550336001600160a01b03168661ffff167f18a47d8df22f178f89e665cc0fccf4ee175e91434c7b749c4a7607ffa4d33a6760405160405180910390a350505050509392505050565b6040516397f735d560e01b81523360048201526000907f00000000000000000000000000000000000000000000000000000000000000006001600160a01b0316906397f735d590602401602060405180830381865afa1580156123a6573d6000803e3d6000fd5b505050506040513d601f19601f820116820180604052508101906123ca9190613f0a565b156123e8576040516363bd50f360e01b815260040160405180910390fd5b336123f1610417565b341015612411576040516336cd2a1760e21b815260040160405180910390fd5b600060075462010000900460ff16600381111561243057612430613856565b1461244e57604051635c07b6d760e11b815260040160405180910390fd5b6005546001600160a01b0380831691160361247c576040516313da522f60e21b815260040160405180910390fd5b6001600160a01b0381166000908152610379602052604090205460ff16156124b7576040516314c4fea760e31b815260040160405180910390fd5b600754610100900460ff166124cd816001613df4565b9250601460ff841611156124f45760405163b3ed896d60e01b815260040160405180910390fd5b6001600160a01b038216600090815261037960205260409020805460ff191660ff851617905561252261362b565b6001600160a01b03831660608201526003608082015234815280600860ff84166014811061255257612552613da2565b6004020160008201518160000155602082015181600101556040820151816002015560608201518160030160006101000a8154816001600160a01b0302191690836001600160a01b0316021790555060808201518160030160146101000a81548160ff021916908360ff16021790555060a08201518160030160156101000a81548160ff021916908360ff16021790555060c08201518160030160166101000a81548160ff021916908360ff16021790555060e08201518160030160176101000a81548160ff021916908360000b60ff1602179055506101008201518160030160186101000a81548160ff021916908360000b60ff1602179055506101208201518160030160196101000a81548160ff021916908360000b60ff16021790555061014082015181600301601a6101000a81548160ff02191690831515021790555061016082015181600301601b6101000a81548160ff0219169083151502179055509050506007600181819054906101000a900460ff16809291906126d690613db8565b91906101000a81548160ff021916908360ff160217905550507f00000000000000000000000000000000000000000000000000000000000000006001600160a01b031663893c1c12600054866040518363ffffffff1660e01b815260040161274b92919091825260ff16602082015260400190565b600060405180830381600087803b15801561276557600080fd5b505af1158015612779573d6000803e3d6000fd5b50506040516001600160a01b038616925060ff871691507f5be3b1880f42d49148565384a4f51ec5053b2d86130110067dfb4defd3919fe490600090a350505090565b336001600160a01b037f0000000000000000000000000000000000000000000000000000000000000000161461280557604051630636a15760e11b815260040160405180910390fd5b600360075462010000900460ff16600381111561282457612824613856565b14612842576040516301f34c3f60e01b815260040160405180910390fd5b6058805461ffff191690556128596059600061368f565b600754610100900460ff1660005b8160ff168160ff1610156128c857600060088260ff166014811061288d5761288d613da2565b60040201600301546001600160a01b0316600090815261037960205260409020805460ff1916905550806128c081613db8565b915050612867565b506007805461ff00191690556128e06008600061369f565b6128ee8787878787876134e2565b50505050505050565b605854819061ffff90811690821610612923576040516324f45c6160e21b815260040160405180910390fd5b600060598361ffff16610190811061293d5761293d613da2565b604080516101008082018352600293840294909401805460ff808216845295810486166020840152919490939285019262010000909204169081111561298557612985613856565b600281111561299657612996613856565b815281546020909101906301000000900460ff1660028111156129bb576129bb613856565b60028111156129cc576129cc613856565b8152815460ff600160201b820481166020840152600160281b820481166040840152606090920191600160301b909104166005811115612a0e57612a0e613856565b6005811115612a1f57612a1f613856565b8152600191820154602091820152336000908152610379909152604090205491925060ff90911690612a519082613e45565b60ff16826000015160ff1614612a7a57604051638926341960e01b815260040160405180910390fd5b60c08201516000816005811115612a9357612a93613856565b14612ab157604051633c00957160e11b815260040160405180910390fd5b6080830151835160089060ff1660148110612ace57612ace613da2565b6004020160030160158282829054906101000a900460ff16612af09190613e45565b92506101000a81548160ff021916908360ff160217905550600260598661ffff166101908110612b2257612b22613da2565b60020201805460ff60301b1916600160301b836005811115612b4657612b46613856565b0217905550604051339061ffff8716907f34d66c87f348a9492b2a7fe1463b02de9cab509ca7872ee83878909d9805c3a890600090a35050505050565b6000808360000b1215612b9857506000612bfa565b8260000b600014612bb45760048260ff161115612bb457600491505b60006003548360ff16612bc79190613d8b565b6001549091506103e890612bde9060ff1682613f2c565b612bec9061ffff1683613d8b565b612bf69190613e7f565b9150505b92915050565b60585461ffff1660005b8161ffff168161ffff161015612ca457600160598261ffff166101908110612c3457612c34613da2565b6002020154600160301b900460ff166005811115612c5457612c54613856565b03612c9257612c6281612db2565b60405161ffff8216907f7727bf3ad5db9c2c6c2cc2b086e5579bf2e4fd88a0c6b1abbaf783fc609565c990600090a25b80612c9c81613ee9565b915050612c0a565b5050565b6000816002811115612cbc57612cbc613856565b03612d165760088260ff1660148110612cd757612cd7613da2565b600402016003018054600160b81b900460000b906017612cf683613f47565b91906101000a81548160ff021916908360000b60ff160217905550505050565b6001816002811115612d2a57612d2a613856565b03612d645760088260ff1660148110612d4557612d45613da2565b600402016003018054600160c01b900460000b906018612cf683613f47565b6002816002811115612d7857612d78613856565b03612ca45760088260ff1660148110612d9357612d93613da2565b600402016003018054600160c81b900460000b906019612cf683613f47565b600060598261ffff166101908110612dcc57612dcc613da2565b604080516101008082018352600293840294909401805460ff8082168452958104861660208401529194909392850192620100009092041690811115612e1457612e14613856565b6002811115612e2557612e25613856565b815281546020909101906301000000900460ff166002811115612e4a57612e4a613856565b6002811115612e5b57612e5b613856565b8152815460ff600160201b820481166020840152600160281b820481166040840152606090920191600160301b909104166005811115612e9d57612e9d613856565b6005811115612eae57612eae613856565b815260019190910154602091820152815190820151919250906005605961ffff86166101908110612ee157612ee1613da2565b60020201805460ff60301b1916600160301b836005811115612f0557612f05613856565b0217905550826080015160088360ff1660148110612f2557612f25613da2565b6004020160030160158282829054906101000a900460ff16612f479190613e45565b92506101000a81548160ff021916908360ff160217905550826080015160088360ff1660148110612f7a57612f7a613da2565b6004020160030160148282829054906101000a900460ff16612f9c9190613e45565b92506101000a81548160ff021916908360ff1602179055508260a0015160088260ff1660148110612fcf57612fcf613da2565b6004020160030160158282829054906101000a900460ff16612ff19190613e45565b92506101000a81548160ff021916908360ff160217905550826080015160088260ff166014811061302457613024613da2565b6004020160030160148282829054906101000a900460ff166130469190613df4565b92506101000a81548160ff021916908360ff16021790555050505050565b600060598261ffff16610190811061307e5761307e613da2565b604080516101008082018352600293840294909401805460ff80821684529581048616602084015291949093928501926201000090920416908111156130c6576130c6613856565b60028111156130d7576130d7613856565b815281546020909101906301000000900460ff1660028111156130fc576130fc613856565b600281111561310d5761310d613856565b8152815460ff600160201b820481166020840152600160281b820481166040840152606090920191600160301b90910416600581111561314f5761314f613856565b600581111561316057613160613856565b815260019190910154602091820152815190820151919250906004605961ffff8616610190811061319357613193613da2565b60020201805460ff60301b1916600160301b8360058111156131b7576131b7613856565b0217905550826080015160088360ff16601481106131d7576131d7613da2565b6004020160030160158282829054906101000a900460ff166131f99190613e45565b92506101000a81548160ff021916908360ff1602179055508260a0015160088360ff166014811061322c5761322c613da2565b6004020160030160148282829054906101000a900460ff1661324e9190613df4565b92506101000a81548160ff021916908360ff1602179055508260a0015160088260ff166014811061328157613281613da2565b6004020160030160158282829054906101000a900460ff166132a39190613e45565b92506101000a81548160ff021916908360ff1602179055508260a0015160088260ff16601481106132d6576132d6613da2565b6004020160030160148282829054906101000a900460ff166130469190613e45565b600060598261ffff16610190811061331257613312613da2565b604080516101008082018352600293840294909401805460ff808216845295810486166020840152919490939285019262010000909204169081111561335a5761335a613856565b600281111561336b5761336b613856565b815281546020909101906301000000900460ff16600281111561339057613390613856565b60028111156133a1576133a1613856565b8152815460ff600160201b820481166020840152600160281b820481166040840152606090920191600160301b9091041660058111156133e3576133e3613856565b60058111156133f4576133f4613856565b815260019190910154602091820152815190820151919250906003605961ffff8616610190811061342757613427613da2565b60020201805460ff60301b1916600160301b83600581111561344b5761344b613856565b0217905550826080015160088360ff166014811061346b5761346b613da2565b6004020160030160158282829054906101000a900460ff1661348d9190613e45565b92506101000a81548160ff021916908360ff1602179055508260a0015160088260ff16601481106134c0576134c0613da2565b6004020160030160158282829054906101000a900460ff166130469190613e45565b60008690556001805460ff191660ff8781169190911790915560038590556004849055600580546001600160a01b0319166001600160a01b0385161790556007805462ff00ff1916918316918217905561353f9062015180613f5c565b61354e9062ffffff1642613e93565b60068190555060006014600360066135669190613f83565b6135709190613fa5565b6040805160608101825260ff831680825260208201819052918101919091529091506135a09060029060036136ae565b5050505050505050565b60405180606001604052806003906020820280368337509192915050565b6040518061010001604052806008906020820280368337509192915050565b6040805161010081018252600080825260208201819052918101829052606081018290526080810182905260a0810182905260c0810182905260e081019190915290565b6040805161018081018252600080825260208201819052918101829052606081018290526080810182905260a0810182905260c0810182905260e0810182905261010081018290526101208101829052610140810182905261016081019190915290565b50610cce90610320810190613741565b50610cce906050810190613767565b6001830191839082156137315791602002820160005b8382111561370257835183826101000a81548160ff021916908360ff16021790555092602001926001016020816000010492830192600103026136c4565b801561372f5782816101000a81549060ff0219169055600101602081600001049283019260010302613702565b505b5061373d92915061379b565b5090565b5b8082111561373d57805466ffffffffffffff1916815560006001820155600201613742565b5b8082111561373d5760008082556001820181905560028201556003810180546001600160e01b0319169055600401613768565b5b8082111561373d576000815560010161379c565b60006101208083018a8452602061ffff8b168186015289604086015288606086015287608086015260a085018760005b600381101561380057815160ff16835291830191908301906001016137e0565b5050506101008501929092528451908190526101408401918086019160005b818110156138445783516001600160a01b03168552938201939282019260010161381f565b50929c9b505050505050505050505050565b634e487b7160e01b600052602160045260246000fd5b602081016004831061388057613880613856565b91905290565b803560ff8116811461389757600080fd5b919050565b634e487b7160e01b600052604160045260246000fd5b604051601f8201601f1916810167ffffffffffffffff811182821017156138db576138db61389c565b604052919050565b60008060e083850312156138f657600080fd5b6138ff83613886565b9150602084603f85011261391257600080fd5b60405160c0810181811067ffffffffffffffff821117156139355761393561389c565b6040528060e086018781111561394a57600080fd5b8387015b8181101561396c5761395f81613886565b835291840191840161394e565b50505080925050509250929050565b6003811061398b5761398b613856565b9052565b6006811061398b5761398b613856565b602080825282518282018190526000919060409081850190868401855b82811015613a5157815160ff80825116865280888301511688870152868201516139e88888018261397b565b506060808301516139fb8289018261397b565b50506080828101519091169086015260a080820151613a1e8288018260ff169052565b505060c080820151613a328288018261398f565b505060e0908101519085015261010090930192908501906001016139bc565b5091979650505050505050565b8051825260208101516020830152604081015160408301526060810151613a9060608401826001600160a01b03169052565b506080810151613aa5608084018260ff169052565b5060a0810151613aba60a084018260ff169052565b5060c0810151613acf60c084018260ff169052565b5060e0810151613ae460e084018260000b9052565b5061010080820151613afa8285018260000b9052565b505061012080820151613b118285018260000b9052565b505061014081810151151590830152610160908101511515910152565b6020808252825182820181905260009190848201906040850190845b81811015613b7157613b5d838551613a5e565b928401926101809290920191600101613b4a565b50909695505050505050565b803561ffff8116811461389757600080fd5b60008060408385031215613ba257600080fd5b613bab83613b7d565b9150602083013560038110613bbf57600080fd5b809150509250929050565b600080600060608486031215613bdf57600080fd5b613be884613b7d565b92506020613bf7818601613886565b9250604085013567ffffffffffffffff80821115613c1457600080fd5b818701915087601f830112613c2857600080fd5b813581811115613c3a57613c3a61389c565b613c4c601f8201601f191685016138b2565b91508082528884828501011115613c6257600080fd5b80848401858401376000848284010152508093505050509250925092565b600060208284031215613c9257600080fd5b613c9b82613886565b9392505050565b6101808101612bfa8284613a5e565b600080600060608486031215613cc657600080fd5b83359250613cd660208501613886565b9150613ce460408501613886565b90509250925092565b60008060008060008060c08789031215613d0657600080fd5b86359550613d1660208801613886565b9450604087013593506060870135925060808701356001600160a01b0381168114613d4057600080fd5b9150613d4e60a08801613886565b90509295509295509295565b600060208284031215613d6c57600080fd5b613c9b82613b7d565b634e487b7160e01b600052601160045260246000fd5b8082028115828204841417612bfa57612bfa613d75565b634e487b7160e01b600052603260045260246000fd5b600060ff821660ff8103613dce57613dce613d75565b60010192915050565b600060ff821680613dea57613dea613d75565b6000190192915050565b60ff8181168382160190811115612bfa57612bfa613d75565b634e487b7160e01b600052601260045260246000fd5b600060ff831680613e3657613e36613e0d565b8060ff84160691505092915050565b60ff8281168282160390811115612bfa57612bfa613d75565b600081810b9083900b01607f8113607f1982121715612bfa57612bfa613d75565b600082613e8e57613e8e613e0d565b500490565b80820180821115612bfa57612bfa613d75565b6001600160f81b0319831681528151600090815b81811015613ed75760208186018101516001868401015201613eba565b50600092016001019182525092915050565b600061ffff808316818103613f0057613f00613d75565b6001019392505050565b600060208284031215613f1c57600080fd5b81518015158114613c9b57600080fd5b61ffff828116828216039080821115610bec57610bec613d75565b600081810b60808101613dea57613dea613d75565b62ffffff818116838216028082169190828114613f7b57613f7b613d75565b505092915050565b600060ff831680613f9657613f96613e0d565b8060ff84160491505092915050565b60ff8181168382160290811690818114610bec57610bec613d7556fea26469706673582212206c0d8cc78efd386ad0701ffa2bf94b2634ee7efcd8ceb8595da5f9de3767be3d64736f6c63430008130033","linkReferences":{}},"methodIdentifiers":{"answerMatch(uint16,uint8)":"651ffda9","cancelMatch(uint16)":"ec18810a","closeGame()":"786b844b","closeMatch(uint16,uint8,string)":"a2b19a49","computeRewards()":"7c1b7f8a","finishGame()":"9fecb69f","getBasicJoiningCost()":"0f9361c3","getDealer()":"9cf6d1af","getDuration()":"ad2e8c9b","getGameId()":"c0bd8351","getGameInfo()":"1746bd1b","getMatches()":"2c70120e","getNbrPlayers()":"fcada10a","getPlayerState(uint8)":"a6d3571d","getPlayersState()":"525f5093","getStarCost()":"5e7303d4","getState()":"1865c57d","givePlayerHand(uint8,uint8[6])":"2c16cb6c","isFinished()":"7b352962","joinGame()":"d4f77b1c","offerMatch(bytes32,uint8,uint8)":"b6b3b64e","resetGame(uint256,uint8,uint256,uint256,address,uint8)":"e3b9b110","withdraw()":"3ccfd60b"},"id":26}