{"abi":[{"type":"constructor","inputs":[],"stateMutability":"nonpayable"},{"type":"function","name":"ban","inputs":[{"name":"user","type":"address","internalType":"address"}],"outputs":[],"stateMutability":"nonpayable"},{"type":"function","name":"banFromGame","inputs":[{"name":"gameId","type":"uint256","internalType":"uint256"},{"name":"player","type":"address","internalType":"address"}],"outputs":[],"stateMutability":"nonpayable"},{"type":"function","name":"createGame","inputs":[{"name":"duration","type":"uint8","internalType":"uint8"}],"outputs":[{"name":"gameId","type":"uint256","internalType":"uint256"},{"name":"gameAddress","type":"address","internalType":"address"}],"stateMutability":"payable"},{"type":"function","name":"getGame","inputs":[{"name":"gameId","type":"uint256","internalType":"uint256"}],"outputs":[{"name":"","type":"address","internalType":"address"}],"stateMutability":"view"},{"type":"function","name":"getGames","inputs":[],"outputs":[{"name":"","type":"address[20]","internalType":"address[20]"}],"stateMutability":"view"},{"type":"function","name":"getOpenGames","inputs":[],"outputs":[{"name":"","type":"address[]","internalType":"address[]"}],"stateMutability":"view"},{"type":"function","name":"getPlayersWhoNeedCards","inputs":[],"outputs":[{"name":"games","type":"address[]","internalType":"address[]"},{"name":"playerIds","type":"uint8[]","internalType":"uint8[]"}],"stateMutability":"view"},{"type":"function","name":"getRealGameId","inputs":[{"name":"gameId","type":"uint256","internalType":"uint256"}],"outputs":[{"name":"realGameId","type":"uint8","internalType":"uint8"}],"stateMutability":"pure"},{"type":"function","name":"givePlayersCards","inputs":[{"name":"games","type":"address[]","internalType":"address[]"},{"name":"playerIds","type":"uint8[]","internalType":"uint8[]"},{"name":"rng","type":"uint8[6][]","internalType":"uint8[6][]"}],"outputs":[],"stateMutability":"nonpayable"},{"type":"function","name":"isBanned","inputs":[{"name":"user","type":"address","internalType":"address"}],"outputs":[{"name":"","type":"bool","internalType":"bool"}],"stateMutability":"view"},{"type":"function","name":"owner","inputs":[],"outputs":[{"name":"","type":"address","internalType":"address"}],"stateMutability":"view"},{"type":"function","name":"renounceOwnership","inputs":[],"outputs":[],"stateMutability":"nonpayable"},{"type":"function","name":"setGameCreationFee","inputs":[{"name":"gameCreationFee","type":"uint256","internalType":"uint256"}],"outputs":[],"stateMutability":"nonpayable"},{"type":"function","name":"setRngProvider","inputs":[{"name":"provider","type":"address","internalType":"address"}],"outputs":[],"stateMutability":"nonpayable"},{"type":"function","name":"setStarCost","inputs":[{"name":"starCost","type":"uint256","internalType":"uint256"}],"outputs":[],"stateMutability":"nonpayable"},{"type":"function","name":"setWinningsCut","inputs":[{"name":"winningsCut","type":"uint8","internalType":"uint8"}],"outputs":[],"stateMutability":"nonpayable"},{"type":"function","name":"transferOwnership","inputs":[{"name":"newOwner","type":"address","internalType":"address"}],"outputs":[],"stateMutability":"nonpayable"},{"type":"function","name":"unban","inputs":[{"name":"user","type":"address","internalType":"address"}],"outputs":[],"stateMutability":"nonpayable"},{"type":"function","name":"withdraw","inputs":[],"outputs":[],"stateMutability":"nonpayable"},{"type":"function","name":"withdrawGameCut","inputs":[{"name":"gameId","type":"uint256","internalType":"uint256"}],"outputs":[],"stateMutability":"nonpayable"},{"type":"event","name":"GameCreated","inputs":[{"name":"gameId","type":"uint256","indexed":true,"internalType":"uint256"},{"name":"gameAddress","type":"address","indexed":true,"internalType":"address"}],"anonymous":false},{"type":"event","name":"GameJoined","inputs":[{"name":"gameId","type":"uint256","indexed":true,"internalType":"uint256"},{"name":"player","type":"address","indexed":false,"internalType":"address"}],"anonymous":false},{"type":"event","name":"OwnershipTransferred","inputs":[{"name":"previousOwner","type":"address","indexed":true,"internalType":"address"},{"name":"newOwner","type":"address","indexed":true,"internalType":"address"}],"anonymous":false},{"type":"error","name":"RestrictedRPSFactory_DurationTooLong","inputs":[]},{"type":"error","name":"RestrictedRPSFactory_InvalidGameId","inputs":[{"name":"gameId","type":"uint256","internalType":"uint256"}]},{"type":"error","name":"RestrictedRPSFactory_PlayerBanned","inputs":[{"name":"player","type":"address","internalType":"address"}]},{"type":"error","name":"RestrictedRPSFactory_SendMore","inputs":[]},{"type":"error","name":"RestrictedRPSFactory_TooManyOpenGames","inputs":[]},{"type":"error","name":"notRngProvider","inputs":[]}],"bytecode":{"object":"0x608060405260018080556002805460ff191690911790556509184e72a000600381905560045534801561003157600080fd5b5061003b33610040565b610090565b600080546001600160a01b038381166001600160a01b0319831681178455604051919092169283917f8be0079c531659141344cd1fd0a4f28419497f9722a3daafe3b4186f6b6457e09190a35050565b615c4b8061009f6000396000f3fe608060405260043610620001375760003560e01c80638da5cb5b11620000ad578063be61faf5116200006c578063be61faf5146200039e578063c04c594714620003c6578063e580f6ab14620003ed578063e75d7e3e1462000422578063f2fde38b146200044957600080fd5b80638da5cb5b14620002ad57806397c3ccd814620002e157806397f735d51462000306578063a2f77bcc1462000354578063b9f14557146200037957600080fd5b8063681956a511620000fa578063681956a514620002015780636e9b2dc01462000226578063715018a6146200024b578063830d545914620002635780638a1157b4146200028857600080fd5b8063047fa6b1146200013c5780630be7544914620001635780633ccfd60b1462000188578063412650ba14620001a05780635b282cba14620001dc575b600080fd5b3480156200014957600080fd5b50620001616200015b366004620011ee565b6200046e565b005b3480156200017057600080fd5b506200016162000182366004620012c2565b620005a5565b3480156200019557600080fd5b5062000161620005b4565b348015620001ad57600080fd5b50620001c5620001bf366004620012c2565b620005fc565b60405160ff90911681526020015b60405180910390f35b348015620001e957600080fd5b5062000161620001fb366004620012ec565b62000611565b3480156200020e57600080fd5b50620001616200022036600462001330565b62000631565b3480156200023357600080fd5b506200016162000245366004620012c2565b62000694565b3480156200025857600080fd5b5062000161620006a3565b3480156200027057600080fd5b506200016162000282366004620012c2565b620006bb565b3480156200029557600080fd5b5062000161620002a73660046200135f565b62000757565b348015620002ba57600080fd5b506000546001600160a01b03165b6040516001600160a01b039091168152602001620001d3565b348015620002ee57600080fd5b5062000161620003003660046200135f565b62000783565b3480156200031357600080fd5b5062000343620003253660046200135f565b6001600160a01b031660009081526006602052604090205460ff1690565b6040519015158152602001620001d3565b3480156200036157600080fd5b50620002c862000373366004620012c2565b620007b1565b3480156200038657600080fd5b5062000161620003983660046200135f565b620007ec565b348015620003ab57600080fd5b50620003b662000817565b604051620001d3929190620013c3565b348015620003d357600080fd5b50620003de62000b02565b604051620001d3919062001421565b62000404620003fe366004620012ec565b62000b4b565b604080519283526001600160a01b03909116602083015201620001d3565b3480156200042f57600080fd5b506200043a62000e38565b604051620001d391906200145e565b3480156200045657600080fd5b5062000161620004683660046200135f565b6200104a565b6005546001600160a01b031633146200049a5760405163090818db60e31b815260040160405180910390fd5b60005b60ff81168611156200059c5786868260ff16818110620004c157620004c162001473565b9050602002016020810190620004d891906200135f565b6001600160a01b0316632c16cb6c86868460ff16818110620004fe57620004fe62001473565b9050602002016020810190620005159190620012ec565b85858560ff168181106200052d576200052d62001473565b905060c002016040518363ffffffff1660e01b81526004016200055292919062001489565b600060405180830381600087803b1580156200056d57600080fd5b505af115801562000582573d6000803e3d6000fd5b5050505080806200059390620014ec565b9150506200049d565b50505050505050565b620005af620010c6565b600155565b620005be620010c6565b600080546040516001600160a01b03909116914780156108fc02929091818181858888f19350505050158015620005f9573d6000803e3d6000fd5b50565b60006200060b6014836200150e565b92915050565b6200061b620010c6565b6002805460ff191660ff92909216919091179055565b60006200063e83620005fc565b905060078160ff166014811062000659576200065962001473565b01546001600160a01b031633036200068f576001600160a01b0382166000908152600660205260409020805460ff191660011790555b505050565b6200069e620010c6565b600355565b620006ad620010c6565b620006b9600062001122565b565b620006c5620010c6565b6000620006d282620005fc565b9050600060078260ff1660148110620006ef57620006ef62001473565b0160009054906101000a90046001600160a01b03169050806001600160a01b0316633ccfd60b6040518163ffffffff1660e01b8152600401600060405180830381600087803b1580156200074257600080fd5b505af11580156200059c573d6000803e3d6000fd5b62000761620010c6565b600580546001600160a01b0319166001600160a01b0392909216919091179055565b6200078d620010c6565b6001600160a01b03166000908152600660205260409020805460ff19166001179055565b600080620007bf83620005fc565b905060078160ff1660148110620007da57620007da62001473565b01546001600160a01b03169392505050565b620007f6620010c6565b6001600160a01b03166000908152600660205260409020805460ff19169055565b60608060006200082662000e38565b90506000805b82518160ff161015620008e557828160ff168151811062000851576200085162001473565b60200260200101516001600160a01b031663be61faf56040518163ffffffff1660e01b8152600401600060405180830381865afa15801562000897573d6000803e3d6000fd5b505050506040513d6000823e601f3d908101601f19168201604052620008c1919081019062001554565b51620008ce908362001627565b915080620008dc81620014ec565b9150506200082c565b508060ff1667ffffffffffffffff81111562000905576200090562001531565b6040519080825280602002602001820160405280156200092f578160200160208202803683370190505b5093508060ff1667ffffffffffffffff81111562000951576200095162001531565b6040519080825280602002602001820160405280156200097b578160200160208202803683370190505b5092506000805b83518160ff16101562000afa576000848260ff1681518110620009a957620009a962001473565b60200260200101516001600160a01b031663be61faf56040518163ffffffff1660e01b8152600401600060405180830381865afa158015620009ef573d6000803e3d6000fd5b505050506040513d6000823e601f3d908101601f1916820160405262000a19919081019062001554565b905060005b81518160ff16101562000ae257858360ff168151811062000a435762000a4362001473565b6020026020010151888560ff168151811062000a635762000a6362001473565b60200260200101906001600160a01b031690816001600160a01b031681525050818160ff168151811062000a9b5762000a9b62001473565b6020026020010151878560ff168151811062000abb5762000abb62001473565b60ff909216602092830291909101909101528062000ad981620014ec565b91505062000a1e565b5050808062000af190620014ec565b91505062000982565b505050509091565b62000b0c62001172565b604080516102808101918290529060079060149082845b81546001600160a01b0316815260019091019060200180831162000b23575050505050905090565b33600090815260066020526040812054819060ff161562000b8657604051634114689b60e11b81523360048201526024015b60405180910390fd5b60015434101562000baa5760405163e7781c5960e01b815260040160405180910390fd5b601b549150600062000bbc83620005fc565b905060078160ff166014811062000bd75762000bd762001473565b01546001600160a01b03169150811562000d1a57816003816001600160a01b0316631865c57d6040518163ffffffff1660e01b8152600401602060405180830381865afa15801562000c2d573d6000803e3d6000fd5b505050506040513d601f19601f8201168201806040525081019062000c53919062001659565b600381111562000c675762000c6762001643565b1462000c8657604051630b37dc9160e01b815260040160405180910390fd5b60025460035460048054604051630e3b9b1160e41b815291820188905260ff93841660248301526044820192909252606481019190915233608482015290861660a48201526001600160a01b0382169063e3b9b1109060c401600060405180830381600087803b15801562000cfa57600080fd5b505af115801562000d0f573d6000803e3d6000fd5b505050505062000de5565b60003084600260009054906101000a900460ff16600354600454338a60405162000d449062001191565b6001600160a01b039788168152602081019690965260ff9485166040870152606086019390935260808501919091529390931660a083015290911660c082015260e001604051809103906000f08015801562000da4573d6000803e3d6000fd5b5090508092508260078360ff166014811062000dc45762000dc462001473565b0180546001600160a01b0319166001600160a01b0392909216919091179055505b601b805490600062000df7836200167c565b90915550506040516001600160a01b0383169084907fc3e0f84839dc888c892a013d10c8f9d6dc05a21a879d0ce468ca558013e9121c90600090a350915091565b6040805160148082526102a082019092526060916000919060208201610280803683370190505090506000805b601460ff8216101562000f7c57600060078260ff166014811062000e8d5762000e8d62001473565b01546001600160a01b03169050801562000f6657806000816001600160a01b0316631865c57d6040518163ffffffff1660e01b8152600401602060405180830381865afa15801562000ee3573d6000803e3d6000fd5b505050506040513d601f19601f8201168201806040525081019062000f09919062001659565b600381111562000f1d5762000f1d62001643565b0362000f645781858560ff168151811062000f3c5762000f3c62001473565b6001600160a01b03909216602092830291909101909101528362000f6081620014ec565b9450505b505b508062000f7381620014ec565b91505062000e65565b5060008160ff1667ffffffffffffffff81111562000f9e5762000f9e62001531565b60405190808252806020026020018201604052801562000fc8578160200160208202803683370190505b50905060005b8260ff168160ff1610156200104257838160ff168151811062000ff55762000ff562001473565b6020026020010151828260ff168151811062001015576200101562001473565b6001600160a01b0390921660209283029190910190910152806200103981620014ec565b91505062000fce565b509392505050565b62001054620010c6565b6001600160a01b038116620010bb5760405162461bcd60e51b815260206004820152602660248201527f4f776e61626c653a206e6577206f776e657220697320746865207a65726f206160448201526564647265737360d01b606482015260840162000b7d565b620005f98162001122565b6000546001600160a01b03163314620006b95760405162461bcd60e51b815260206004820181905260248201527f4f776e61626c653a2063616c6c6572206973206e6f7420746865206f776e6572604482015260640162000b7d565b600080546001600160a01b038381166001600160a01b0319831681178455604051919092169283917f8be0079c531659141344cd1fd0a4f28419497f9722a3daafe3b4186f6b6457e09190a35050565b6040518061028001604052806014906020820280368337509192915050565b61457d806200169983390190565b60008083601f840112620011b257600080fd5b50813567ffffffffffffffff811115620011cb57600080fd5b6020830191508360208260051b8501011115620011e757600080fd5b9250929050565b600080600080600080606087890312156200120857600080fd5b863567ffffffffffffffff808211156200122157600080fd5b6200122f8a838b016200119f565b909850965060208901359150808211156200124957600080fd5b620012578a838b016200119f565b909650945060408901359150808211156200127157600080fd5b818901915089601f8301126200128657600080fd5b8135818111156200129657600080fd5b8a602060c083028501011115620012ac57600080fd5b6020830194508093505050509295509295509295565b600060208284031215620012d557600080fd5b5035919050565b60ff81168114620005f957600080fd5b600060208284031215620012ff57600080fd5b81356200130c81620012dc565b9392505050565b80356001600160a01b03811681146200132b57600080fd5b919050565b600080604083850312156200134457600080fd5b82359150620013566020840162001313565b90509250929050565b6000602082840312156200137257600080fd5b6200130c8262001313565b600081518084526020808501945080840160005b83811015620013b85781516001600160a01b03168752958201959082019060010162001391565b509495945050505050565b604081526000620013d860408301856200137d565b82810360208481019190915284518083528582019282019060005b818110156200141457845160ff1683529383019391830191600101620013f3565b5090979650505050505050565b6102808101818360005b6014811015620014555781516001600160a01b03168352602092830192909101906001016200142b565b50505092915050565b6020815260006200130c60208301846200137d565b634e487b7160e01b600052603260045260246000fd5b60ff838116825260e082019060208084018560005b6006811015620014ca578135620014b581620012dc565b8516835291830191908301906001016200149e565b50505050509392505050565b634e487b7160e01b600052601160045260246000fd5b600060ff821660ff8103620015055762001505620014d6565b60010192915050565b6000826200152c57634e487b7160e01b600052601260045260246000fd5b500690565b634e487b7160e01b600052604160045260246000fd5b80516200132b81620012dc565b600060208083850312156200156857600080fd5b825167ffffffffffffffff808211156200158157600080fd5b818501915085601f8301126200159657600080fd5b815181811115620015ab57620015ab62001531565b8060051b604051601f19603f83011681018181108582111715620015d357620015d362001531565b604052918252848201925083810185019188831115620015f257600080fd5b938501935b828510156200161b576200160b8562001547565b84529385019392850192620015f7565b98975050505050505050565b60ff81811683821601908111156200060b576200060b620014d6565b634e487b7160e01b600052602160045260246000fd5b6000602082840312156200166c57600080fd5b8151600481106200130c57600080fd5b600060018201620016915762001691620014d6565b506001019056fe60a06040523480156200001157600080fd5b506040516200457d3803806200457d833981016040819052620000349162000210565b6001600160a01b038716608052620000518686868686866200005e565b505050505050506200033d565b60008690556001805460ff191660ff8781169190911790915560038590556004849055600580546001600160a01b0319166001600160a01b0385161790556007805462ff00ff19169183169182179055620000bd9062015180620002a0565b620000ce9062ffffff1642620002ca565b6006819055506000601460036006620000e89190620002e6565b620000f4919062000317565b6040805160608101825260ff831680825260208201819052918101919091529091506200012690600290600362000130565b5050505050505050565b600183019183908215620001b85791602002820160005b838211156200018757835183826101000a81548160ff021916908360ff160217905550926020019260010160208160000104928301926001030262000147565b8015620001b65782816101000a81549060ff021916905560010160208160000104928301926001030262000187565b505b50620001c6929150620001ca565b5090565b5b80821115620001c65760008155600101620001cb565b80516001600160a01b0381168114620001f957600080fd5b919050565b805160ff81168114620001f957600080fd5b600080600080600080600060e0888a0312156200022c57600080fd5b6200023788620001e1565b9650602088015195506200024e60408901620001fe565b945060608801519350608088015192506200026c60a08901620001e1565b91506200027c60c08901620001fe565b905092959891949750929550565b634e487b7160e01b600052601160045260246000fd5b62ffffff818116838216028082169190828114620002c257620002c26200028a565b505092915050565b80820180821115620002e057620002e06200028a565b92915050565b600060ff8316806200030857634e487b7160e01b600052601260045260246000fd5b8060ff84160491505092915050565b60ff81811683821602908116908181146200033657620003366200028a565b5092915050565b6080516142016200037c6000396000818161061101528181610c6801528181610cb30152818161134d015281816125b3015261299601526142016000f3fe60806040526004361061014b5760003560e01c80639cf6d1af116100b6578063be61faf51161006f578063be61faf5146103a8578063c0bd8351146103ca578063d4f77b1c146103df578063e3b9b110146103e7578063ec18810a14610407578063fcada10a1461042757600080fd5b80639cf6d1af146102c55780639fecb69f146102ed578063a2b19a4914610302578063a6d3571d14610322578063ad2e8c9b1461034f578063b6b3b64e1461037557600080fd5b8063525f509311610108578063525f50931461021f5780635e7303d414610241578063651ffda914610256578063786b844b146102765780637b3529621461028b5780637c1b7f8a146102b057600080fd5b80630f9361c3146101505780631746bd1b146101785780631865c57d146101a05780632c16cb6c146101c65780632c70120e146101e85780633ccfd60b1461020a575b600080fd5b34801561015c57600080fd5b50610165610444565b6040519081526020015b60405180910390f35b34801561018457600080fd5b5061018d610459565b60405161016f979695949392919061397f565b3480156101ac57600080fd5b5060075462010000900460ff1660405161016f9190613a3b565b3480156101d257600080fd5b506101e66101e1366004613ab2565b6105ca565b005b3480156101f457600080fd5b506101fd610a6c565b60405161016f9190613b6e565b34801561021657600080fd5b506101e6610c20565b34801561022b57600080fd5b50610234610cfe565b60405161016f9190613cfd565b34801561024d57600080fd5b50600354610165565b34801561026257600080fd5b506101e6610271366004613d5e565b610e7f565b34801561028257600080fd5b506101e6611185565b34801561029757600080fd5b506102a06113f0565b604051901515815260200161016f565b3480156102bc57600080fd5b506101e661160d565b3480156102d157600080fd5b506005546040516001600160a01b03909116815260200161016f565b3480156102f957600080fd5b506101e6611a7d565b34801561030e57600080fd5b506101e661031d366004613d99565b611abd565b34801561032e57600080fd5b5061034261033d366004613e4f565b611e71565b60405161016f9190613e71565b34801561035b57600080fd5b5060075460ff165b60405160ff909116815260200161016f565b34801561038157600080fd5b50610395610390366004613e80565b611fa4565b60405161ffff909116815260200161016f565b3480156103b457600080fd5b506103bd61236c565b60405161016f9190613ebc565b3480156103d657600080fd5b50600054610165565b61036361259b565b3480156103f357600080fd5b506101e6610402366004613ef7565b61298b565b34801561041357600080fd5b506101e6610422366004613f64565b612ac6565b34801561043357600080fd5b50600754610100900460ff16610363565b6003805460009161045491613f95565b905090565b6000806000806000610469613779565b600754606090610100900460ff1660008167ffffffffffffffff81111561049257610492613a6b565b6040519080825280602002602001820160405280156104bb578160200160208202803683370190505b50905060005b8260ff168160ff16101561053f5760088160ff16601481106104e5576104e5613fac565b6004020160030160009054906101000a90046001600160a01b0316828260ff168151811061051557610515613fac565b6001600160a01b03909216602092830291909101909101528061053781613fc2565b9150506104c1565b5060005460585460038054600454600654604080516060810190915261ffff90951694929391929091600291889183908282826020028201916000905b825461010083900a900460ff1681526020600192830181810494850194909303909202910180841161057c579050505050505091509850985098509850985098509850505090919293949596565b8160ff811615806105e8575060075460ff6101009091048116908216115b156106065760405163786a04a360e11b815260040160405180910390fd5b336001600160a01b037f0000000000000000000000000000000000000000000000000000000000000000161461064f57604051630636a15760e11b815260040160405180910390fd5b610657613797565b61065f613779565b6040805160608101918290526000916002906003908285855b825461010083900a900460ff16815260206001928301818104948501949093039092029101808411610678579050505050505090506000806106b8613779565b60088360ff161080156106e35750805115806106d657506020810151155b806106e357506040810151155b156107ad576000848360ff16600381106106ff576106ff613fac565b602002015160ff16111561076d5781868460ff166008811061072357610723613fac565b60ff90921660209290920201528261073a81613fc2565b935050838260ff166003811061075257610752613fac565b6020020180519061076282613fe1565b60ff1690525061078f565b6001818360ff166003811061078457610784613fac565b911515602090920201525b600361079c836001613ffe565b6107a6919061402d565b91506106b8565b60005b60068160ff161015610893576000848a8360ff16600681106107d4576107d4613fac565b60200201516107e3919061402d565b9050878160ff16600881106107fa576107fa613fac565b60200201519350868460ff166003811061081657610816613fac565b6020020180519061082682613fc2565b60ff169052508761083860018761404f565b60ff166008811061084b5761084b613fac565b6020020151888260ff166008811061086557610865613fac565b60ff90921660209290920201528461087c81613fe1565b95505050808061088b90613fc2565b9150506107b0565b50845160028054602088015160408901516201000061010060ff19851660ff8087168990038116918217839004811695909503851690910261ffff199095161793909317838104831691909103821690920262ff00001992909216919091179091556000198b01919060089083166014811061091157610911613fac565b6004020160030160176101000a81548160ff021916908360000b60ff160217905550856001600281111561094757610947613a25565b60ff166003811061095a5761095a613fac565b602002015160088260ff166014811061097557610975613fac565b6004020160030160186101000a81548160ff021916908360000b60ff160217905550856002808111156109aa576109aa613a25565b60ff16600381106109bd576109bd613fac565b602002015160088260ff16601481106109d8576109d8613fac565b6004020160030160196101000a81548160ff021916908360000b60ff160217905550600160088260ff1660148110610a1257610a12613fac565b60040201600301601a6101000a81548160ff0219169083151502179055508960ff167f017debd7c79e4378a9deeb7a4c53031f98e52a78181b2a41737d6bcd1da0cad260405160405180910390a250505050505050505050565b60585460609061ffff1660008167ffffffffffffffff811115610a9157610a91613a6b565b604051908082528060200260200182016040528015610aca57816020015b610ab76137b6565b815260200190600190039081610aaf5790505b50905060005b8261ffff168160ff161015610c195760598160ff166101908110610af657610af6613fac565b604080516101008082018352600293840294909401805460ff8082168452958104861660208401529194909392850192620100009092041690811115610b3e57610b3e613a25565b6002811115610b4f57610b4f613a25565b815281546020909101906301000000900460ff166002811115610b7457610b74613a25565b6002811115610b8557610b85613a25565b8152815460ff600160201b820481166020840152600160281b820481166040840152606090920191600160301b909104166005811115610bc757610bc7613a25565b6005811115610bd857610bd8613a25565b8152602001600182015481525050828260ff1681518110610bfb57610bfb613fac565b60200260200101819052508080610c1190613fc2565b915050610ad0565b5092915050565b600360075462010000900460ff166003811115610c3f57610c3f613a25565b14610c5d5760405163916bb70360e01b815260040160405180910390fd5b336001600160a01b037f00000000000000000000000000000000000000000000000000000000000000001614610ca657604051630636a15760e11b815260040160405180910390fd5b6040516001600160a01b037f000000000000000000000000000000000000000000000000000000000000000016904780156108fc02916000818181858888f19350505050158015610cfb573d6000803e3d6000fd5b50565b600754606090610100900460ff1660008167ffffffffffffffff811115610d2757610d27613a6b565b604051908082528060200260200182016040528015610d6057816020015b610d4d6137fa565b815260200190600190039081610d455790505b50905060005b8260ff168160ff161015610c195760088160ff1660148110610d8a57610d8a613fac565b60408051610180810182526004929092029290920180548252600181015460208301526002810154928201929092526003909101546001600160a01b038116606083015260ff600160a01b820481166080840152600160a81b8204811660a0840152600160b01b8204811660c0840152600160b81b8204600090810b60e0850152600160c01b8304810b610100850152600160c81b8304900b610120840152600160d01b820481161515610140840152600160d81b90910481161515610160830152835184918416908110610e6157610e61613fac565b60200260200101819052508080610e7790613fc2565b915050610d66565b605854829061ffff90811690821610610eab576040516324f45c6160e21b815260040160405180910390fd5b336000908152610379602052604081205460ff1690819003610ee05760405163abca351760e01b815260040160405180910390fd5b6000610eed60018361404f565b9050600060598661ffff166101908110610f0957610f09613fac565b60020201805490915060ff90811690831603610f38576040516326cbced560e11b815260040160405180910390fd5b60008154600160301b900460ff166005811115610f5757610f57613a25565b14610f755760405163d41fc5d360e01b815260040160405180910390fd5b600060088360ff1660148110610f8d57610f8d613fac565b60408051610180810182526004929092029290920180548252600181015460208301526002810154928201929092526003909101546001600160a01b038116606083015260ff600160a01b8204811660808401819052600160a81b8304821660a08501819052600160b01b8404831660c0860152600160b81b8404600090810b60e0870152600160c01b8504810b610100870152600160c81b8504900b610120860152600160d01b840483161515610140860152600160d81b9093048216151561016085015285549394509261106c9291600160281b90910416613ffe565b60ff16111561108e5760405163afae62f560e01b815260040160405180910390fd5b815460ff84166101000261ff00198216811784558791849163ff000000191663ff00ff00199091161763010000008360028111156110ce576110ce613a25565b0217905550815460ff60301b1916600160301b1780835560ff600160281b90910481169060089085166014811061110757611107613fac565b6004020160030160158282829054906101000a900460ff166111299190613ffe565b92506101000a81548160ff021916908360ff160217905550336001600160a01b03168761ffff167f01b120bec3d4ba9705e9f5f6c7aa115993959878ac9533a84cb359ffe642823060405160405180910390a350505050505050565b600260075462010000900460ff1660038111156111a4576111a4613a25565b146111c2576040516337d7b4a960e21b815260040160405180910390fd5b600754610100900460ff1660005b8160ff168160ff1610156113db57600060088260ff16601481106111f6576111f6613fac565b60408051610180810182526004929092029290920180548252600181015460208301526002810154928201839052600301546001600160a01b0381166060830181905260ff600160a01b830481166080850152600160a81b8304811660a0850152600160b01b8304811660c0850152600160b81b8304600090810b60e0860152600160c01b8404810b610100860152600160c81b8404900b610120850152600160d01b830481161515610140850152600160d81b9092049091161515610160830152909250811561132357600060088560ff16601481106112d9576112d9613fac565b6004020160020181905550806001600160a01b03166108fc839081150290604051600060405180830381858888f1935050505015801561131d573d6000803e3d6000fd5b506113c5565b826101600151156113c557600054606084015160405163681956a560e01b81526001600160a01b037f0000000000000000000000000000000000000000000000000000000000000000169263681956a592611392926004019182526001600160a01b0316602082015260400190565b600060405180830381600087803b1580156113ac57600080fd5b505af11580156113c0573d6000803e3d6000fd5b505050505b50505080806113d390613fc2565b9150506111d0565b50506007805462ff0000191662030000179055565b60008060075462010000900460ff16600381111561141057611410613a25565b1461141b5750600090565b42600654111561160757600754610100900460ff16601403611601576040805161028081019091526000906008601483835b82821015611524576040805161018081018252600484028601805482526001808201546020808501919091526002830154948401949094526003909101546001600160a01b038116606084015260ff600160a01b820481166080850152600160a81b8204811660a0850152600160b01b8204811660c0850152600160b81b8204600090810b60e0860152600160c01b8304810b610100860152600160c81b8304900b610120850152600160d01b820481161515610140850152600160d81b909104161515610160830152908352909201910161144d565b50505050905060006001905060005b60148160ff161015610c1957828160ff166014811061155457611554613fac565b6020020151610140015161156b5760009150610c19565b6000838260ff166014811061158257611582613fac565b60200201516101200151848360ff16601481106115a1576115a1613fac565b60200201516101000151858460ff16601481106115c0576115c0613fac565b602002015160e001516115d39190614068565b6115dd9190614068565b60000b13156115ef5760009150610c19565b806115f981613fc2565b915050611533565b50600090565b50600190565b600160075462010000900460ff16600381111561162c5761162c613a25565b1461164a5760405163b7c3a5b360e01b815260040160405180910390fd5b600754610100900460ff166000805b8260ff168160ff16101561189257600060088260ff166014811061167f5761167f613fac565b60408051610180810182526004929092029290920180548252600181015460208301526002810154928201929092526003909101546001600160a01b038116606083015260ff600160a01b820481166080840152600160a81b8204811660a0840152600160b01b8204811660c0840152600160b81b8204600090810b60e08501819052600160c01b8404820b610100860152600160c81b8404820b610120860152600160d01b840483161515610140860152600160d81b9093049091161515610160840152919250128061175b5750600081610100015160000b125b8061176e5750600081610120015160000b125b156118035760608101516001600160a01b031661178c836001613ffe565b60ff167fbcca734eb6b3e37bf45032aa7885d16fc72d3e10953810489a12a254d8ffacd760405160405180910390a3826117c581613fc2565b935050600160088360ff16601481106117e0576117e0613fac565b60040201600301601b6101000a81548160ff02191690831515021790555061187f565b60006118378261012001518361010001518460e001516118239190614068565b61182d9190614068565b8360800151612d52565b90508060088460ff166014811061185057611850613fac565b60040201600101819055508060088460ff166014811061187257611872613fac565b6004020160020181905550505b508061188a81613fc2565b915050611659565b5060ff811615611a3f5760006118a8828461404f565b6118b3906001613ffe565b60ff166003548360ff166118c79190613f95565b6118d2906003613f95565b6118dc9190614089565b905060005b8360ff168160ff161015611a3c57600060088260ff166014811061190757611907613fac565b60408051610180810182526004929092029290920180548252600181015460208301526002810154928201929092526003909101546001600160a01b038116606083015260ff600160a01b820481166080840152600160a81b8204811660a0840152600160b01b8204811660c0840152600160b81b8204600090810b60e0850152600160c01b8304810b610100850152600160c81b8304900b610120840152600160d01b820481161515610140840152600160d81b9091041615156101608201819052909150611a295780516000906119e190859061409d565b90508060088460ff16601481106119fa576119fa613fac565b60040201600101819055508060088460ff1660148110611a1c57611a1c613fac565b6004020160020181905550505b5080611a3481613fc2565b9150506118e1565b50505b6007805462ff00001916620200001790556040517f4fe64a1db9b488a7580160b96d00df1e33928b44702c888eec276fb8cfdaaaa190600090a15050565b611a856113f0565b611aa25760405163b7c3a5b360e01b815260040160405180910390fd5b611aaa612dcf565b6007805462ff0000191662010000179055565b605854839061ffff90811690821610611ae9576040516324f45c6160e21b815260040160405180910390fd5b600060598561ffff166101908110611b0357611b03613fac565b604080516101008082018352600293840294909401805460ff8082168452958104861660208401529194909392850192620100009092041690811115611b4b57611b4b613a25565b6002811115611b5c57611b5c613a25565b815281546020909101906301000000900460ff166002811115611b8157611b81613a25565b6002811115611b9257611b92613a25565b8152815460ff600160201b820481166020840152600160281b820481166040840152606090920191600160301b909104166005811115611bd457611bd4613a25565b6005811115611be557611be5613a25565b81526001918201546020909101529091508160c001516005811115611c0c57611c0c613a25565b14611c2a5760405163ead5e9fb60e01b815260040160405180910390fd5b60008460f81b84604051602001611c429291906140b0565b604051602081830303815290604052805190602001209050808260e0015114611c7e5760405163018aa1cb60e21b815260040160405180910390fd5b60008560ff166002811115611c9557611c95613a25565b90508060598861ffff166101908110611cb057611cb0613fac565b6002020160000160026101000a81548160ff02191690836002811115611cd857611cd8613a25565b021790555060608301518351611cee9083612e77565b611cfc846020015182612e77565b6002826002811115611d1057611d10613a25565b60ff161115611d2257611d2288612f81565b6002816002811115611d3657611d36613a25565b60ff161115611d4857611d4888613233565b806002811115611d5a57611d5a613a25565b826002811115611d6c57611d6c613a25565b03611d7f57611d7a886134c7565b611e38565b6000826002811115611d9357611d93613a25565b148015611db157506002816002811115611daf57611daf613a25565b145b80611de957506001826002811115611dcb57611dcb613a25565b148015611de957506000816002811115611de757611de7613a25565b145b80611e2157506002826002811115611e0357611e03613a25565b148015611e2157506001816002811115611e1f57611e1f613a25565b145b15611e2f57611d7a88613233565b611e3888612f81565b60405161ffff8916907f7727bf3ad5db9c2c6c2cc2b086e5579bf2e4fd88a0c6b1abbaf783fc609565c990600090a25050505050505050565b611e796137fa565b8160ff81161580611e97575060075460ff6101009091048116908216115b15611eb55760405163786a04a360e11b815260040160405180910390fd5b6000611ec260018561404f565b905060088160ff1660148110611eda57611eda613fac565b60408051610180810182526004929092029290920180548252600181015460208301526002810154928201929092526003909101546001600160a01b038116606083015260ff600160a01b820481166080840152600160a81b8204811660a0840152600160b01b8204811660c0840152600160b81b8204600090810b60e0850152600160c01b8304810b610100850152600160c81b8304900b610120840152600160d01b820481161515610140840152600160d81b90910416151561016082015292505050919050565b6000611fae6137b6565b336000908152610379602052604081205460ff1690819003611fe35760405163abca351760e01b815260040160405180910390fd5b6000611ff060018361404f565b9050600060088260ff166014811061200a5761200a613fac565b604080516101808101825260049290920292909201805482526001808201546020840152600282015493830193909352600301546001600160a01b038116606083015260ff600160a01b820481166080840152600160a81b8204811660a0840152600160b01b8204811660c08401819052600160b81b8304600090810b60e0860152600160c01b8404810b610100860152600160c81b8404810b610120860152600160d01b840483161515610140860152600160d81b9093049091161515610160840152919350916120dc9190613ffe565b9050601460ff821611156121035760405163751121a560e11b815260040160405180910390fd5b816080015160ff168260a001518961211b9190613ffe565b60ff16111561213d5760405163afae62f560e01b815260040160405180910390fd5b60ff808416865260e086018a905287811660a08701528816608086015260585461ffff16955084605987610190811061217857612178613fac565b82516002918202929092018054602085015160ff9081166101000261ffff1990921694169390931792909217808355604084015191839162ff0000191690620100009084908111156121cc576121cc613a25565b021790555060608201518154829063ff000000191663010000008360028111156121f8576121f8613a25565b02179055506080820151815460a084015160ff908116600160281b0265ff00000000001991909316600160201b021665ffff0000000019909116171780825560c083015190829060ff60301b1916600160301b83600581111561225d5761225d613a25565b021790555060e091909101516001909101556058805461ffff16906000612283836140f3565b91906101000a81548161ffff021916908361ffff160217905550508060088460ff16601481106122b5576122b5613fac565b6004020160030160166101000a81548160ff021916908360ff1602179055508760088460ff16601481106122eb576122eb613fac565b6004020160030160158282829054906101000a900460ff1661230d9190613ffe565b92506101000a81548160ff021916908360ff160217905550336001600160a01b03168661ffff167f18a47d8df22f178f89e665cc0fccf4ee175e91434c7b749c4a7607ffa4d33a6760405160405180910390a350505050509392505050565b6040805161028081019091526060906000906008601483835b8282101561245c576040805161018081018252600484028601805482526001808201546020808501919091526002830154948401949094526003909101546001600160a01b038116606084015260ff600160a01b820481166080850152600160a81b8204811660a0850152600160b01b8204811660c0850152600160b81b8204600090810b60e0860152600160c01b8304810b610100860152600160c81b8304900b610120850152600160d01b820481161515610140850152600160d81b9091041615156101608301529083529092019101612385565b50506007549293505050610100900460ff166000805b8260ff168160ff1610156124c357838160ff166014811061249557612495613fac565b602002015161014001516124b157816124ad81613fc2565b9250505b806124bb81613fc2565b915050612472565b508060ff1667ffffffffffffffff8111156124e0576124e0613a6b565b604051908082528060200260200182016040528015612509578160200160208202803683370190505b5093506000805b8360ff168160ff16101561259357848160ff166014811061253357612533613fac565b602002015161014001516125815761254c816001613ffe565b868360ff168151811061256157612561613fac565b60ff909216602092830291909101909101528161257d81613fc2565b9250505b8061258b81613fc2565b915050612510565b505050505090565b6040516397f735d560e01b81523360048201526000907f00000000000000000000000000000000000000000000000000000000000000006001600160a01b0316906397f735d590602401602060405180830381865afa158015612602573d6000803e3d6000fd5b505050506040513d601f19601f820116820180604052508101906126269190614114565b15612644576040516363bd50f360e01b815260040160405180910390fd5b3361264d610444565b34101561266d576040516336cd2a1760e21b815260040160405180910390fd5b600060075462010000900460ff16600381111561268c5761268c613a25565b146126aa57604051635c07b6d760e11b815260040160405180910390fd5b6005546001600160a01b038083169116036126d8576040516313da522f60e21b815260040160405180910390fd5b6001600160a01b0381166000908152610379602052604090205460ff1615612713576040516314c4fea760e31b815260040160405180910390fd5b600754610100900460ff16612729816001613ffe565b9250601460ff841611156127505760405163b3ed896d60e01b815260040160405180910390fd5b6001600160a01b038216600090815261037960205260409020805460ff191660ff851617905561277e6137fa565b6001600160a01b03831660608201526003608082015234815280600860ff8416601481106127ae576127ae613fac565b6004020160008201518160000155602082015181600101556040820151816002015560608201518160030160006101000a8154816001600160a01b0302191690836001600160a01b0316021790555060808201518160030160146101000a81548160ff021916908360ff16021790555060a08201518160030160156101000a81548160ff021916908360ff16021790555060c08201518160030160166101000a81548160ff021916908360ff16021790555060e08201518160030160176101000a81548160ff021916908360000b60ff1602179055506101008201518160030160186101000a81548160ff021916908360000b60ff1602179055506101208201518160030160196101000a81548160ff021916908360000b60ff16021790555061014082015181600301601a6101000a81548160ff02191690831515021790555061016082015181600301601b6101000a81548160ff0219169083151502179055509050506007600181819054906101000a900460ff168092919061293290613fc2565b91906101000a81548160ff021916908360ff16021790555050826001600160a01b03168460ff167f5be3b1880f42d49148565384a4f51ec5053b2d86130110067dfb4defd3919fe460405160405180910390a350505090565b336001600160a01b037f000000000000000000000000000000000000000000000000000000000000000016146129d457604051630636a15760e11b815260040160405180910390fd5b600360075462010000900460ff1660038111156129f3576129f3613a25565b14612a11576040516301f34c3f60e01b815260040160405180910390fd5b6058805461ffff19169055612a286059600061385e565b600754610100900460ff1660005b8160ff168160ff161015612a9757600060088260ff1660148110612a5c57612a5c613fac565b60040201600301546001600160a01b0316600090815261037960205260409020805460ff191690555080612a8f81613fc2565b915050612a36565b506007805461ff0019169055612aaf6008600061386e565b612abd8787878787876136b1565b50505050505050565b605854819061ffff90811690821610612af2576040516324f45c6160e21b815260040160405180910390fd5b600060598361ffff166101908110612b0c57612b0c613fac565b604080516101008082018352600293840294909401805460ff8082168452958104861660208401529194909392850192620100009092041690811115612b5457612b54613a25565b6002811115612b6557612b65613a25565b815281546020909101906301000000900460ff166002811115612b8a57612b8a613a25565b6002811115612b9b57612b9b613a25565b8152815460ff600160201b820481166020840152600160281b820481166040840152606090920191600160301b909104166005811115612bdd57612bdd613a25565b6005811115612bee57612bee613a25565b8152600191820154602091820152336000908152610379909152604090205491925060ff90911690612c20908261404f565b60ff16826000015160ff1614612c4957604051638926341960e01b815260040160405180910390fd5b60c08201516000816005811115612c6257612c62613a25565b14612c8057604051633c00957160e11b815260040160405180910390fd5b6080830151835160089060ff1660148110612c9d57612c9d613fac565b6004020160030160158282829054906101000a900460ff16612cbf919061404f565b92506101000a81548160ff021916908360ff160217905550600260598661ffff166101908110612cf157612cf1613fac565b60020201805460ff60301b1916600160301b836005811115612d1557612d15613a25565b0217905550604051339061ffff8716907f34d66c87f348a9492b2a7fe1463b02de9cab509ca7872ee83878909d9805c3a890600090a35050505050565b6000808360000b1215612d6757506000612dc9565b8260000b600014612d835760048260ff161115612d8357600491505b60006003548360ff16612d969190613f95565b6001549091506103e890612dad9060ff1682614136565b612dbb9061ffff1683613f95565b612dc59190614089565b9150505b92915050565b60585461ffff1660005b8161ffff168161ffff161015612e7357600160598261ffff166101908110612e0357612e03613fac565b6002020154600160301b900460ff166005811115612e2357612e23613a25565b03612e6157612e3181612f81565b60405161ffff8216907f7727bf3ad5db9c2c6c2cc2b086e5579bf2e4fd88a0c6b1abbaf783fc609565c990600090a25b80612e6b816140f3565b915050612dd9565b5050565b6000816002811115612e8b57612e8b613a25565b03612ee55760088260ff1660148110612ea657612ea6613fac565b600402016003018054600160b81b900460000b906017612ec583614151565b91906101000a81548160ff021916908360000b60ff160217905550505050565b6001816002811115612ef957612ef9613a25565b03612f335760088260ff1660148110612f1457612f14613fac565b600402016003018054600160c01b900460000b906018612ec583614151565b6002816002811115612f4757612f47613a25565b03612e735760088260ff1660148110612f6257612f62613fac565b600402016003018054600160c81b900460000b906019612ec583614151565b600060598261ffff166101908110612f9b57612f9b613fac565b604080516101008082018352600293840294909401805460ff8082168452958104861660208401529194909392850192620100009092041690811115612fe357612fe3613a25565b6002811115612ff457612ff4613a25565b815281546020909101906301000000900460ff16600281111561301957613019613a25565b600281111561302a5761302a613a25565b8152815460ff600160201b820481166020840152600160281b820481166040840152606090920191600160301b90910416600581111561306c5761306c613a25565b600581111561307d5761307d613a25565b815260019190910154602091820152815190820151919250906005605961ffff861661019081106130b0576130b0613fac565b60020201805460ff60301b1916600160301b8360058111156130d4576130d4613a25565b0217905550826080015160088360ff16601481106130f4576130f4613fac565b6004020160030160158282829054906101000a900460ff16613116919061404f565b92506101000a81548160ff021916908360ff160217905550826080015160088360ff166014811061314957613149613fac565b6004020160030160148282829054906101000a900460ff1661316b919061404f565b92506101000a81548160ff021916908360ff1602179055508260a0015160088260ff166014811061319e5761319e613fac565b6004020160030160158282829054906101000a900460ff166131c0919061404f565b92506101000a81548160ff021916908360ff160217905550826080015160088260ff16601481106131f3576131f3613fac565b6004020160030160148282829054906101000a900460ff166132159190613ffe565b92506101000a81548160ff021916908360ff16021790555050505050565b600060598261ffff16610190811061324d5761324d613fac565b604080516101008082018352600293840294909401805460ff808216845295810486166020840152919490939285019262010000909204169081111561329557613295613a25565b60028111156132a6576132a6613a25565b815281546020909101906301000000900460ff1660028111156132cb576132cb613a25565b60028111156132dc576132dc613a25565b8152815460ff600160201b820481166020840152600160281b820481166040840152606090920191600160301b90910416600581111561331e5761331e613a25565b600581111561332f5761332f613a25565b815260019190910154602091820152815190820151919250906004605961ffff8616610190811061336257613362613fac565b60020201805460ff60301b1916600160301b83600581111561338657613386613a25565b0217905550826080015160088360ff16601481106133a6576133a6613fac565b6004020160030160158282829054906101000a900460ff166133c8919061404f565b92506101000a81548160ff021916908360ff1602179055508260a0015160088360ff16601481106133fb576133fb613fac565b6004020160030160148282829054906101000a900460ff1661341d9190613ffe565b92506101000a81548160ff021916908360ff1602179055508260a0015160088260ff166014811061345057613450613fac565b6004020160030160158282829054906101000a900460ff16613472919061404f565b92506101000a81548160ff021916908360ff1602179055508260a0015160088260ff16601481106134a5576134a5613fac565b6004020160030160148282829054906101000a900460ff16613215919061404f565b600060598261ffff1661019081106134e1576134e1613fac565b604080516101008082018352600293840294909401805460ff808216845295810486166020840152919490939285019262010000909204169081111561352957613529613a25565b600281111561353a5761353a613a25565b815281546020909101906301000000900460ff16600281111561355f5761355f613a25565b600281111561357057613570613a25565b8152815460ff600160201b820481166020840152600160281b820481166040840152606090920191600160301b9091041660058111156135b2576135b2613a25565b60058111156135c3576135c3613a25565b815260019190910154602091820152815190820151919250906003605961ffff861661019081106135f6576135f6613fac565b60020201805460ff60301b1916600160301b83600581111561361a5761361a613a25565b0217905550826080015160088360ff166014811061363a5761363a613fac565b6004020160030160158282829054906101000a900460ff1661365c919061404f565b92506101000a81548160ff021916908360ff1602179055508260a0015160088260ff166014811061368f5761368f613fac565b6004020160030160158282829054906101000a900460ff16613215919061404f565b60008690556001805460ff191660ff8781169190911790915560038590556004849055600580546001600160a01b0319166001600160a01b0385161790556007805462ff00ff1916918316918217905561370e9062015180614166565b61371d9062ffffff164261409d565b6006819055506000601460036006613735919061418d565b61373f91906141af565b6040805160608101825260ff8316808252602082018190529181019190915290915061376f90600290600361387d565b5050505050505050565b60405180606001604052806003906020820280368337509192915050565b6040518061010001604052806008906020820280368337509192915050565b6040805161010081018252600080825260208201819052918101829052606081018290526080810182905260a0810182905260c0810182905260e081019190915290565b6040805161018081018252600080825260208201819052918101829052606081018290526080810182905260a0810182905260c0810182905260e0810182905261010081018290526101208101829052610140810182905261016081019190915290565b50610cfb90610320810190613910565b50610cfb906050810190613936565b6001830191839082156139005791602002820160005b838211156138d157835183826101000a81548160ff021916908360ff1602179055509260200192600101602081600001049283019260010302613893565b80156138fe5782816101000a81549060ff02191690556001016020816000010492830192600103026138d1565b505b5061390c92915061396a565b5090565b5b8082111561390c57805466ffffffffffffff1916815560006001820155600201613911565b5b8082111561390c5760008082556001820181905560028201556003810180546001600160e01b0319169055600401613937565b5b8082111561390c576000815560010161396b565b60006101208083018a8452602061ffff8b168186015289604086015288606086015287608086015260a085018760005b60038110156139cf57815160ff16835291830191908301906001016139af565b5050506101008501929092528451908190526101408401918086019160005b81811015613a135783516001600160a01b0316855293820193928201926001016139ee565b50929c9b505050505050505050505050565b634e487b7160e01b600052602160045260246000fd5b6020810160048310613a4f57613a4f613a25565b91905290565b803560ff81168114613a6657600080fd5b919050565b634e487b7160e01b600052604160045260246000fd5b604051601f8201601f1916810167ffffffffffffffff81118282101715613aaa57613aaa613a6b565b604052919050565b60008060e08385031215613ac557600080fd5b613ace83613a55565b9150602084603f850112613ae157600080fd5b60405160c0810181811067ffffffffffffffff82111715613b0457613b04613a6b565b6040528060e0860187811115613b1957600080fd5b8387015b81811015613b3b57613b2e81613a55565b8352918401918401613b1d565b50505080925050509250929050565b60038110613b5a57613b5a613a25565b9052565b60068110613b5a57613b5a613a25565b602080825282518282018190526000919060409081850190868401855b82811015613c2057815160ff8082511686528088830151168887015286820151613bb788880182613b4a565b50606080830151613bca82890182613b4a565b50506080828101519091169086015260a080820151613bed8288018260ff169052565b505060c080820151613c0182880182613b5e565b505060e090810151908501526101009093019290850190600101613b8b565b5091979650505050505050565b8051825260208101516020830152604081015160408301526060810151613c5f60608401826001600160a01b03169052565b506080810151613c74608084018260ff169052565b5060a0810151613c8960a084018260ff169052565b5060c0810151613c9e60c084018260ff169052565b5060e0810151613cb360e084018260000b9052565b5061010080820151613cc98285018260000b9052565b505061012080820151613ce08285018260000b9052565b505061014081810151151590830152610160908101511515910152565b6020808252825182820181905260009190848201906040850190845b81811015613d4057613d2c838551613c2d565b928401926101809290920191600101613d19565b50909695505050505050565b803561ffff81168114613a6657600080fd5b60008060408385031215613d7157600080fd5b613d7a83613d4c565b9150602083013560038110613d8e57600080fd5b809150509250929050565b600080600060608486031215613dae57600080fd5b613db784613d4c565b92506020613dc6818601613a55565b9250604085013567ffffffffffffffff80821115613de357600080fd5b818701915087601f830112613df757600080fd5b813581811115613e0957613e09613a6b565b613e1b601f8201601f19168501613a81565b91508082528884828501011115613e3157600080fd5b80848401858401376000848284010152508093505050509250925092565b600060208284031215613e6157600080fd5b613e6a82613a55565b9392505050565b6101808101612dc98284613c2d565b600080600060608486031215613e9557600080fd5b83359250613ea560208501613a55565b9150613eb360408501613a55565b90509250925092565b6020808252825182820181905260009190848201906040850190845b81811015613d4057835160ff1683529284019291840191600101613ed8565b60008060008060008060c08789031215613f1057600080fd5b86359550613f2060208801613a55565b9450604087013593506060870135925060808701356001600160a01b0381168114613f4a57600080fd5b9150613f5860a08801613a55565b90509295509295509295565b600060208284031215613f7657600080fd5b613e6a82613d4c565b634e487b7160e01b600052601160045260246000fd5b8082028115828204841417612dc957612dc9613f7f565b634e487b7160e01b600052603260045260246000fd5b600060ff821660ff8103613fd857613fd8613f7f565b60010192915050565b600060ff821680613ff457613ff4613f7f565b6000190192915050565b60ff8181168382160190811115612dc957612dc9613f7f565b634e487b7160e01b600052601260045260246000fd5b600060ff83168061404057614040614017565b8060ff84160691505092915050565b60ff8281168282160390811115612dc957612dc9613f7f565b600081810b9083900b01607f8113607f1982121715612dc957612dc9613f7f565b60008261409857614098614017565b500490565b80820180821115612dc957612dc9613f7f565b6001600160f81b0319831681528151600090815b818110156140e157602081860181015160018684010152016140c4565b50600092016001019182525092915050565b600061ffff80831681810361410a5761410a613f7f565b6001019392505050565b60006020828403121561412657600080fd5b81518015158114613e6a57600080fd5b61ffff828116828216039080821115610c1957610c19613f7f565b600081810b60808101613ff457613ff4613f7f565b62ffffff81811683821602808216919082811461418557614185613f7f565b505092915050565b600060ff8316806141a0576141a0614017565b8060ff84160491505092915050565b60ff8181168382160290811690818114610c1957610c19613f7f56fea264697066735822122058d2508ecaa3c69f106c28e007a6cf6f3f1f3cca8c4a4b0a5de57f8bb1d89b6964736f6c63430008130033a2646970667358221220a40a62d9e6fefab840697fbff617928a7cd7b9f134091f476abe23965af06d0464736f6c63430008130033","linkReferences":{}},"methodIdentifiers":{"ban(address)":"97c3ccd8","banFromGame(uint256,address)":"681956a5","createGame(uint8)":"e580f6ab","getGame(uint256)":"a2f77bcc","getGames()":"c04c5947","getOpenGames()":"e75d7e3e","getPlayersWhoNeedCards()":"be61faf5","getRealGameId(uint256)":"412650ba","givePlayersCards(address[],uint8[],uint8[6][])":"047fa6b1","isBanned(address)":"97f735d5","owner()":"8da5cb5b","renounceOwnership()":"715018a6","setGameCreationFee(uint256)":"0be75449","setRngProvider(address)":"8a1157b4","setStarCost(uint256)":"6e9b2dc0","setWinningsCut(uint8)":"5b282cba","transferOwnership(address)":"f2fde38b","unban(address)":"b9f14557","withdraw()":"3ccfd60b","withdrawGameCut(uint256)":"830d5459"},"id":25}